:020000040800F2
:10000000E0070020BD690008C5050008C705000815
:10001000CB050008CF050008D3050008000000004C
:10002000000000000000000000000000D7050008EC
:10003000D905000800000000DB050008DD05000808
:10004000D7690008D7690008D7690008D769000890
:10005000D7690008D7690008D7690008D769000880
:10006000D7690008D7690008D7690008D769000870
:10007000D7690008D7690008D7690008D769000860
:10008000D7690008D7690008D7690008D769000850
:10009000D7690008D7690008D7690008D769000840
:1000A000D7690008D7690008D7690008D769000830
:1000B000D769000825650008D7690008D7690008D6
:1000C000D7690008D7690008D7690008D769000810
:1000D000D769000831690008D7690008D7690008A6
:1000E000D7690008D7690008D7690008D7690008F0
:1000F000D7690008D7690008D7690008D7690008E0
:10010000D7690008D7690008D7690008D7690008CF
:10011000D7690008D7690008D7690008D7690008BF
:10012000D7690008D7690008D7690008D7690008AF
:10013000D7690008D7690008D7690008D76900089F
:10014000D7690008D7690008D7690008D76900088F
:10015000D7690008D7690008D7690008D76900087F
:10016000D7690008D7690008D7690008D76900086F
:10017000D7690008D7690008D7690008D76900085F
:10018000D7690008D769000800F002F800F041F8CC
:100190000AA090E8000C82448344AAF10107DA45E2
:1001A00001D100F036F8AFF2090EBAE80F0013F0F3
:1001B000010F18BFFB1A43F001031847A099000074
:1001C000C0990000103A24BF78C878C1FAD8520705
:1001D00024BF30C830C144BF04680C6070470000C1
:1001E0000023002400250026103A28BF78C1FBD840
:1001F000520728BF30C148BF0B607047782907F00D
:100200003586002070471FB508F0A0F81FBD10B557
:1002100010BD07F0E3FE1146FFF7F5FF00F07DF893
:1002200007F001FF03B4FFF7F2FF03BC06F020FB69
:1002300008B5182004230090B748D2210268662030
:1002400005F09DFE08BD38B506F068F80446B348D1
:100250000460002C0ADA002010232D229621009041
:10026000462005F0F9FD604204B207E000201023AB
:10027000202296210090462005F0EEFD0A2094FBF6
:10028000F0F5182002232A4696210090662005F0FA
:1002900076FE0A2094FBF0F100FB114518200123A3
:1002A0002A46962100908A2005F069FE9C48006845
:1002B000401C9B49086008460068B0F5F07F01DBF0
:1002C00000200860954A12684FF44873A3EB52026D
:1002D00091B2934A128890B201F09FFC38BD38B5B4
:1002E000904800680A21B0FBF1F41820022322464E
:1002F000B4210090662005F042FE8A4800680A2179
:10030000B0FBF1F201FB1204182001232246B421B4
:1003100000908A2005F033FE38BD1CB500244FF450
:10032000A06006F06BFBA82006F020FA4FF4E13045
:1003300006F0ACFA01F0AEF801F08CFF42F2CF010A
:10034000092006F0C3F842F2CF0142F20F7006F026
:10035000BDF906F009F906F029F84FF47840724922
:10036000088072A010210B46C822CDE9001032216E
:100370001E2005F0BCFE72A010210B46C822CDE95C
:10038000001046211E2005F0B2FE72A010210B467F
:10039000C822CDE900105A211E2005F0A8FE71A048
:1003A00010210B46C822CDE900106E211E2005F059
:1003B0009EFE18E06EA010210B46C822CDE9001069
:1003C00082211E2005F093FEC82006F031FA4FF678
:1003D000FF709223EF22822100901E2005F0EEFB99
:1003E000C82006F025FA05F07CFF0028E2D164A0C1
:1003F00010210B46C822CDE9001082211E2005F0F5
:1004000076FE1F204849088060A018210B46C822AC
:10041000CDE9001096211E2005F069FE5EA018218E
:100420000B46C822CDE90010B4211E2005F05FFE66
:100430005CA018210B46C822CDE90010D2211E2055
:1004400005F055FE40F2E73036490860084600687E
:100450004FF44872A2EB500083B208460068A2EB4A
:10046000500081B24FF4F072002005F033FCFFF72A
:1004700036FFFFF7DDFE284801684E4800F053FCC8
:1004800022E006F0DCF84C480078D0B100204A4960
:1004900008704A480068C0434949C1F8A802601C76
:1004A000C4B2052C0DD10024FFF7CDFE05F0BEFF30
:1004B00019490860084601683E4800F034FCFFF71F
:1004C000B7FE0A2006F0B4F9DBE7012806D00228BF
:1004D00009D003280CD004281AD111E00021374A92
:1004E000121F116015E00121344A121F116010E043
:1004F0003249091F0968C943314AC2F8A41208E009
:100500002E49091F0968C9432D4AC2F8A41200E008
:1005100000BF00BF7047000008000020000000205E
:100520001000002004000020280000204578706C96
:100530006F7265722053544D333246340000000010
:1005400044533138423230205049442054455354AA
:100550000000000041544F4D40414C49454E544528
:100560004B000000323031392F31312F323700004B
:1005700044533138423230204572726F72000000AD
:1005800044533138423230204F4B000054454D50D7
:100590003A2020202E204300534554203A2020208A
:1005A0002E20430050574D203A20202020202F3964
:1005B00039393900002000400C000020A882424256
:1005C00000804242704700BFFEE700BFFEE700BF69
:1005D000FEE700BFFEE770477047704770470000B6
:1005E0000CB50020019000907648006840F48030FF
:1005F0007449086000BF7348006800F40030009040
:100600000198401C0190009818B90198B0F5A04FCE
:10061000F1D16C48006800F4003010B10120009066
:1006200001E0002000900098012846D16548403044
:10063000006840F0805063494031086062480068BB
:1006400040F44040604908605E48083000685D49F9
:10065000083108600846006840F400400860084619
:10066000006840F4A05008605848091F0860081F3F
:10067000006840F08070091F086000BF51480068A2
:1006800000F000700028F9D040F205705049086071
:100690004C480830006820F003004A4908310860DF
:1006A0000846006840F00200086000BF4548083076
:1006B000006800F00C000828F8D10CBD10B54548C2
:1006C000006840F47000434908603E48006840F00C
:1006D00001003C49086000203A4908310860394867
:1006E00000683D490840374908603C48091D0860DA
:1006F000081F006820F48020091F0860002031498D
:100700000C310860FFF76CFF4FF000603149803911
:10071000086010BD70B500200022022300240221D1
:10072000284D08352D6805F00C0020B1042806D0AE
:10073000082834D107E02A4D2A4E356033E02A4D8F
:10074000284E35602FE01F4D2D1D2D68C5F38054B8
:100750001C4D2D1D2D6805F03F0154B1224DB5FBF8
:10076000F1F5184E361D3668C6F3881605FB06F2FD
:1007700009E01B4DB5FBF1F5124E361D3668C6F388
:10078000881605FB06F20F4D2D1D2D68C5F301459A
:100790006D1C6B00B2FBF3F5124E356003E0104D9B
:1007A000104E356000BF00BF064D08352D68C5F3FB
:1007B00003150E4E705D0B4D2D68C540094E35601A
:1007C00070BD00000038024000700040085440072F
:1007D000003C024088ED00E0FFFFF6FE10300024F0
:1007E0000024F4001400002000127A0018000020F9
:1007F00010B50446FE48844208D10121084607F09E
:1008000024F80021012007F020F89DE0B4F1804F8A
:1008100008D10121084607F007F80021012007F060
:1008200003F891E0F348844208D10121022006F048
:10083000FBFF0021022006F0F7FF85E0EE4884422E
:1008400008D10121042006F0EFFF0021042006F06A
:10085000EBFF79E0E948844208D10121082006F045
:10086000E3FF0021082006F0DFFF6DE0E44884424A
:1008700008D10121102006F0D7FF0021102006F03A
:10088000D3FF61E0DF48844208D10121202006F037
:10089000CBFF0021202006F0C7FF55E0DA48844254
:1008A00008D10121022006F0D0FF0021022006F02D
:1008B000CCFF49E0D548844209D10121080406F063
:1008C000C4FF00214FF4803006F0BFFF3CE0D04869
:1008D000844209D10121480406F0B7FF00214FF4FA
:1008E000003006F0B2FF2FE0CA48844209D101214E
:1008F000880406F0AAFF00214FF4802006F0A5FF2F
:1009000022E0C548844208D10121402006F08CFF36
:100910000021402006F088FF16E0C048844208D13C
:100920000121802006F080FF0021802006F07CFF5E
:100930000AE0BB48844207D10121801506F074FF0C
:100940000021A01506F070FF10BD00220288A84B00
:1009500098420ED0AC4B98420BD0B0F1804F08D0EB
:10096000A44B984205D0A44B984202D0A34B984286
:1009700004D14FF68F731A404B881A43A04B98420C
:1009800007D0A04B984204D04FF6FF431A400B8982
:100990001A4302804B68C3620B880385944B9842CC
:1009A00002D0994B984201D18B7A0386012383822E
:1009B00070474FF0FF31416000210180018141808B
:1009C000817270470185828270470A460021018842
:1009D0004FF68F7319401143018070474162704791
:1009E000C16270470146486A70470146088D7047EA
:1009F00021B1028842F00202028004E002884FF630
:100A0000FD731A400280704721B1028842F004024F
:100A1000028004E002884FF6FB731A4002807047A0
:100A200021B1028842F08002028004E002884FF681
:100A30007F731A400280704702884FF6F7731A409E
:100A4000028002880A430280704702884FF6FF4303
:100A50001A40028002880A430280704721B102884E
:100A600042F00102028004E002884FF6FE731A4051
:100A70000280704770B5002400220023058C4FF6D9
:100A8000FE7635400584028C8388048B4FF68F7583
:100A90002C40B51E2C400D882C43751E2A408D8994
:100AA0002A434D882A43524DA84202D0564DA842AF
:100AB00013D14FF6F7752A40CD892A434FF6FB75BF
:100AC0002A408D882A434FF6FF652B404FF6FF558D
:100AD0002B400D8A2B434D8A2B43838004838D68E2
:100AE0004563028470BD70B5002400220023058C8C
:100AF0004FF6EF7635400584028C8388048B48F6E8
:100B0000FF752C404FF6FF452C400D884FF6FF76C1
:100B100006EA05252C434FF6DF752A408D8906EA43
:100B200005152A434D8806EA05152A43304DA8428B
:100B300002D0354DA8421DD14FF67F752A40CD8990
:100B40004FF6FF7606EA05152A434FF6BF752A4091
:100B50008D8806EA05152A434FF6FF352B404FF2E4
:100B6000FF752B400D8A06EA85052B434D8A06EA60
:100B700085052B43838004838D688563028470BD63
:100B800070B5002400220023058C4FF6FF66354027
:100B90000584028C8388848B4FF68F752C404FF62A
:100BA000FC752C400D882C434FF6FF552A408D894B
:100BB0004FF6FF7606EA05252A434D8806EA052505
:100BC0002A430B4DA84202D00F4DA84238D14FF214
:100BD000FF752A40CD894FF6FF7606EA05252A43A0
:100BE0004FF6FF352A408D8806EA05252A4319E08D
:100BF000000001400004004000080040000C0040DC
:100C0000001000400014004000040140004001407A
:100C1000004401400048014000180040001C004012
:100C2000002000404EF6FF752B404DF6FF752B401F
:100C30000D8A06EA05152B434D8A06EA05152B4356
:100C4000838084838D68C563028470BD70B5002283
:100C500000230024058C4EF6FF7635400584038C76
:100C60008488828B48F6FF752A404FF6FF452A405C
:100C70000D884FF6FF7606EA05252A434DF6FF75E7
:100C80002B408D8906EA05352B434D8806EA05354C
:100C90002B43FE4DA84202D0FD4DA84208D14BF691
:100CA000FF752C400D8A4FF6FF7606EA85152C431A
:100CB000848082838D680564038470BD0021018077
:100CC0004180818081608181C18101824182704740
:100CD00070B50346002000241846183001258D40C9
:100CE000ACB21D8CA5431D8409B108290AD100EBC3
:100CF000610005684FF68F7635400560056815433D
:100D000005600FE00D1FC5F34E052844056848F641
:100D1000FF763540056005684FF6FF7606EA022645
:100D20003543056070BD4163704781637047C1639F
:100D30007047016470470A460021018B4FF68F739C
:100D400019401143018370470A460021018B48F680
:100D5000FF7319404FF6FF7303EA0223194301831F
:100D600070470A460021818B4FF68F73194011435B
:100D7000818370470A460021818B48F6FF73194032
:100D80004FF6FF7303EA02231943818370470A4633
:100D90000021018B4FF6F77319401143018370470F
:100DA0000A460021018B4FF2FF7319404FF6FF7383
:100DB00003EA02231943018370470A460021818B0D
:100DC0004FF6F77319401143818370470A4600219B
:100DD000818B4FF2FF7319404FF6FF7303EA022332
:100DE0001943818370470A460021018B4FF6FB733C
:100DF00019401143018370470A460021018B4FF6C9
:100E0000FF3319404FF6FF7303EA022319430183AE
:100E100070470A460021818B4FF6FB73194011433E
:100E2000818370470A460021818B4FF6FF331940BA
:100E30004FF6FF7303EA02231943818370470A4682
:100E40000021018B4FF67F731940114301837047D6
:100E50000A460021018BC1F30E014FF6FF7303EA2E
:100E600002231943018370470A460021818B4FF604
:100E70007F7319401143818370470A460021818B9B
:100E8000C1F30E014FF6FF7303EA02231943818376
:100E900070470A460021018C4FF6FD73194011433B
:100EA000018470470A460021018C4FF6F773194000
:100EB0001143018470470A460021018C4FF6DF730D
:100EC00019404FF6FF7303EA021319430184704778
:100ED0000A460021018C4FF67F7319404FF6FF73CD
:100EE00003EA02131943018470470A460021018C6A
:100EF0004FF6FF5319404FF6FF7303EA02231943DD
:100F0000018470470A460021018C4FF2FF7319409B
:100F10004FF6FF7303EA02231943018470470A4620
:100F20000021018C4DF6FF7319404FF6FF7303EA61
:100F3000023319430184704730B5002301248C40EB
:100F4000A3B2048C9C430484048C02FA01F5ADB274
:100F50002C43048430BD30B5002304248C40A3B25C
:100F6000048C9C430484048C02FA01F5ADB22C433A
:100F7000048430BD828B4FF2FF331A408283828B10
:100F80004FF6FF7303EA01231A4382837047F0B5DB
:100F90000C461546002100220026078C4EF6FF7CE9
:100FA00007EA0C070784818B028C4FF6FF7707EA6C
:100FB000043640F6FF4739404FF6FF7707EA05272A
:100FC00039434FF6FF7707EA0337394345F6FF7792
:100FD0003A4046F480573A4381830284F0BD828BC5
:100FE0004FF6F3731A408283828B0A4382837047E1
:100FF000F0B50C461546002100220026078C4FF65E
:10100000FF6C07EA0C070784818B028C4FF6FF7791
:1010100007EA04264FF60C7739404FF6FF7707EAC8
:1010200003172F4339434FF2FF573A4046F4807776
:101030003A4381830284F0BD028B4FF2FF331A40A2
:101040000283028B4FF6FF7303EA01231A430283E4
:101050007047F0B50C461546002100220026078C8B
:101060004FF6EF7C07EA0C070784018B028C4FF6E2
:10107000FF7707EA041640F6FF4739404FF6FF773F
:1010800007EA033739434FF6FF7703E000000140DA
:101090000004014007EA052739434FF65F773A40DD
:1010A00046F010073A4301830284F0BD028B4FF6ED
:1010B000F3731A400283028B0A4302837047F0B530
:1010C0000C46154600210022068C4FF6FE773E4066
:1010D0000684018B028C4FF60C7631407E1C06EAAA
:1010E00003162E4331434FF6F576324044F00106A5
:1010F000324301830284F0BD70B505460C4620885A
:1011000050B92389A28861882846FFF7D8FFE18873
:101110002846FFF7CBFF25E0208804280AD1238941
:10112000A28861882846FFF794FFE1882846FFF7E8
:1011300083FF17E0208808280AD12389A2886188C4
:101140002846FFF755FFE1882846FFF748FF09E0EA
:101150002389A28861882846FFF719FFE18828467D
:10116000FFF708FF70BD00210180418001218180CF
:101170000021C180018170472DE9F04105460C46F0
:1011800000260127608808B9022600E00026A08812
:10119000012801D1022700E001272088A0B9238976
:1011A000A28861882846FFF78AFFE1882846FFF772
:1011B0007DFF23893A4631462846FFF74AFFE188FA
:1011C0002846FFF739FF13E02389A2886188284663
:1011D000FFF73FFFE1882846FFF72EFF23893A46B5
:1011E00031462846FFF76BFFE1882846FFF75EFF90
:1011F000BDE8F0810146486B70470146886B704737
:101200000146C86B70470146086C70470A884B88D6
:101210001A438B881A43CB881A430B891A434B898C
:101220001A438B891A43A0F844207047002101809B
:1012300041808180C180018141818181704731B1CC
:10124000B0F8442042F40042A0F8442005E0B0F891
:101250004420C2F30E02A0F84420704721B18288D6
:1012600042F00402828004E082884FF6FB731A4049
:101270008280704721B1828842F00102828004E0BE
:1012800082884FF6FE731A40828070471AB18389B4
:101290000B43838102E083898B4383817047818282
:1012A000704702460020138A0B400BB1012000E07A
:1012B00000207047CA430282704730B502460020C2
:1012C00000230024158A05EA0103958905EA010433
:1012D00013B10CB1012000E0002030BDCA430282EE
:1012E000704741EA0203A0F8483070471AB1838979
:1012F0000B43838102E083898B438381704721B153
:10130000828842F00802828004E082884FF6F773F8
:101310001A408280704701894FF6F87211400181AE
:1013200070470A46002101894FF68F731940114317
:101330000181704730B504460D4629462046FFF727
:10134000F0FF208940F00700208130BD2DE9F041F9
:1013500004460D4616461F46602D06D13B46012227
:1013600031462046FFF775FE05E03B460122314637
:101370002046FFF7A4FE29462046FFF7D2FF20892A
:1013800040F007002081BDE8F08130B50C46002117
:101390000189C9B24FF6FF7505EA032515432543B8
:1013A0002943018130BD2DE9F04105460E4617461F
:1013B0009846002443463A4631462846FFF7E5FF63
:1013C0002C894FF6F870044044F007044FF68F70F4
:1013D000044044F070042C81BDE8F081F0B504466F
:1013E0000D4616461F463B46324629462046FFF725
:1013F000CCFF208940F480402081F0BD82884FF6E8
:101400008F731A40828082880A43828070470289E3
:101410004FF6F8731A40028102890A43028170472D
:1014200002894FF67F731A40028102890A430281C2
:101430007047F0B50C4615461E46002100220023D9
:101440000189028B038C4FF6F877394021434FF620
:10145000FC473A4040F201173A434FF6DD773B40F4
:101460004FF6FF7707EA06172F433B4301810283BC
:101470000384F0BD21B1828842F08002828004E0C2
:1014800082884FF67F731A4082807047A0F8501010
:10149000704700001CB50121202006F027F94FF409
:1014A000C060009001208DF8040000208DF8060037
:1014B00003208DF8050001208DF8070069460448D7
:1014C00005F092FB4FF4C061014805F009FC1CBD1A
:1014D0000014024001B5BDF800000090BDF8000006
:1014E000F849088008BD01B5BDF800000090BDF8BE
:1014F0000000F449891C088008BD08B5F148801C2B
:1015000000880090BDF8000008BDEE4A10804FF042
:10151000D842A2F88010704710B504462046FFF765
:10152000D9FF052005F03CF9FFF7E7FF10BDE648BD
:101530000089E44908807047E249891C08807047A7
:1015400030B5014601F01F04C1F34513CA0AE50294
:1015500005EB43151544A8B230BD00BF011EA0F134
:101560000102D0B2FAD1704730B504460D46D648D4
:10157000808849F24131884205D0D348808845F2BD
:101580001031884214D1D0494889FFF7A3FF2012B7
:10159000FFF7A9FFE0B2FFF7A6FFCB498889FFF765
:1015A00099FF2812FFF79FFFE8B2FFF79CFFABE01F
:1015B000C548808846F6040188421DD1C24880791A
:1015C000012804D1C0480088401E001B84B2BE49D7
:1015D0004889FFF77FFF2012FFF785FFE0B2FFF792
:1015E00082FFB9498889FFF775FF2812FFF77BFF53
:1015F000E8B2FFF778FF87E0B348808841F66311CF
:10160000884247D1B0488079A8B9AF480088401EC9
:10161000001B84B2AC494889FFF75CFF0020FFF74C
:1016200062FF0020FFF75FFF2012FFF75CFFE0B2D0
:10163000FFF759FF16E0A4494889FFF74BFF201236
:10164000FFF751FFE0B2FFF74EFF9F490988491E9F
:10165000C1F30F20FFF747FF9B490978491EC8B225
:10166000FFF741FF98498889FFF734FF2812FFF7F9
:101670003AFFE8B2FFF737FF93494988491EC1F3A3
:101680000F20FFF730FF90498978491EC8B2FFF755
:101690002AFF39E08C48808845F21051884220D1D9
:1016A00089494889FFF716FF2012FFF71CFF86497A
:1016B0004989491C88B2FFF70DFFE0B2FFF713FF1D
:1016C00081498889FFF706FF2812FFF70CFF7E4942
:1016D0008989491C88B2FFF7FDFEE8B2FFF703FFD6
:1016E00012E079488079012804D177480088401EAB
:1016F000001B84B2744948892146FFF706FF7249EE
:1017000088892946FFF701FF30BD2DE9F0410546E4
:101710000E4600240027A0466B480088A84203DD3F
:1017200069484088B04202DC0020BDE8F0813146C3
:101730002846FFF719FF6448808849F24131884202
:1017400011D06148808846F6040188420BD05E487B
:10175000808845F21031884205D05B48808841F688
:101760006311884203D12E20FFF7B4FE0DE05648E6
:10177000808845F21051884204D14FF43850FFF769
:10178000A9FE02E02220FFF7A5FE4F48808849F21B
:101790002031884202D10220FFF7DFFEFFF7ADFEC5
:1017A00004464948808841F66311884201D12046A9
:1017B000BBE70220FFF7D1FEFFF79FFE0446424839
:1017C000808849F2413188420BD03F48808845F2F9
:1017D0001031884205D03C48808845F2105188423B
:1017E0000AD10220FFF7B9FEFFF787FE8046E7B275
:1017F0004FF6FF7000EA07273348808849F2253109
:10180000884216D03048808844F23551884210D042
:101810002D488088091F88420BD02B4880884BF2C6
:101820000551884205D0284880884CF205518842ED
:1018300001D1204679E72448808849F24131884225
:101840000BD02148808845F21031884205D01E48CF
:10185000808845F21051884207D1E012C002B912C7
:1018600040EA411040EAE8205FE72046FFF768FEC3
:101870005BE700B51448808849F24131884211D0B5
:101880001148808846F6040188420BD00E488088B3
:1018900045F21031884205D00B48808841F663112B
:1018A000884203D12920FFF715FE14E006488088FE
:1018B00045F21051884209D14FF42450FFF70AFE37
:1018C00009E000007E00006C6C00002040F2731103
:1018D0000720FFF71AFE00BD00B5FD48808849F2D9
:1018E0004131884211D0FA48808846F60401884286
:1018F0000BD0F748808845F21031884205D0F44873
:10190000808841F66311884203D12820FFF7E2FD69
:101910000EE0EF48808845F21051884204D14FF420
:101920002050FFF7D7FD03E000210720FFF7EDFD72
:1019300000BDF0B5054600240027E5488079012860
:101940000BD1E348808846F60401884205D0E04880
:10195000808841F66311884208D1DD488079F0B96A
:10196000DB48808841F66311884218D1082D15D2D2
:10197000DFE805F00406080A0C0E101206250DE03B
:1019800007250BE0042509E0052507E0012505E012
:10199000002503E0032501E0022500BF00BFCC487D
:1019A000808849F24131884217D0C948808846F67C
:1019B0000401884211D0C648808845F2103188421F
:1019C0000BD0C348808845F21051884205D0C048EA
:1019D000808841F6631188427ED1082D1CD2DFE851
:1019E00005F00406090C0F12151800BF14E044F0AE
:1019F000800411E044F040040EE044F0C0040BE029
:101A000044F0200408E044F0600405E044F0A00441
:101A100002E044F0E00400BF00BFAD48808845F21A
:101A20001051884202D14FF4585700E03627A84899
:101A3000808845F2103188420DD0A548808845F253
:101A40001051884207D0A248808841F6631188422D
:101A500001D044F008049E48808846F6040188427C
:101A600001D144F0020421463846FFF74EFD984864
:101A7000808841F6631188421DD004F0200068B1CF
:101A80009348008892494988884214DA9048068829
:101A900040888F490880084646800CE08C480088C2
:101AA0008B494988884206DD8948068840888849EC
:101AB0000880084646808648808845F21051884252
:101AC00054D183494889FFF705FD0020FFF70BFD3E
:101AD0007F494989491C00E077E088B2FFF7FAFCAA
:101AE0000020FFF700FD7A494989891C88B2FFF779
:101AF000F1FC77490988491EC1F30F20FFF7F3FC79
:101B000073494989C91C88B2FFF7E4FC7049097818
:101B1000491EC8B2FFF7E7FC6D498889FFF7DAFC78
:101B20000020FFF7E0FC6A498989491C88B2FFF769
:101B3000D1FC0020FFF7D7FC65498989891C88B250
:101B4000FFF7C8FC62494988491EC1F30F20FFF71F
:101B5000CAFC5F498989C91C88B2FFF7BBFC5C4994
:101B60008978491EC8B2FFF7BEFC55E0584948893C
:101B7000FFF7B0FC0020FFF7B6FC0020FFF7B3FC36
:101B800053490988491EC1F30F20FFF7ACFC5049A7
:101B90000978491EC8B2FFF7A6FC4D498889FFF7AE
:101BA00099FC0020FFF79FFC0020FFF79CFC4849B0
:101BB0004988491EC1F30F20FFF795FC44498978F5
:101BC000491EC8B2FFF78FFC26E0082D1CD2DFE8C3
:101BD00005F004070A0D0F12151844F0300413E045
:101BE00044F0100410E044F020040DE000BF0BE0CE
:101BF00044F0380408E044F0280405E044F01804F8
:101C000002E044F0080400BF00BF032744F48054FE
:101C100021463846FFF779FCF0BD30B504460D4645
:101C200029462046FFF7A0FCFFF781FC29480088E1
:101C30002949088030BD70B504460D461646244833
:101C4000808849F24131884205D02148808845F298
:101C50001031884214D11E494889FFF73BFC2012FD
:101C6000FFF741FCE0B2FFF73EFC19498889FFF716
:101C700031FC2812FFF737FCE8B2FFF734FC93E0A1
:101C80001348808845F21051884227D1104948896D
:101C9000FFF720FC2012FFF726FC0D494989491C5B
:101CA00088B2FFF717FCE0B2FFF71DFC08498889EE
:101CB000FFF710FC2812FFF716FC05498989491C1B
:101CC00088B2FFF707FCE8B2FFF70DFC6CE00000FC
:101CD0006C000020280000208000006CFE488088F6
:101CE00041F66311884228D1FB48807920B9FA482F
:101CF0000088401E001B84B2F7494889FFF7EAFBC1
:101D00002012FFF7F0FBE0B2FFF7EDFB2012FFF728
:101D1000EAFBE0B2FFF7E7FBEF498889FFF7DAFB60
:101D20002812FFF7E0FBE8B2FFF7DDFB2812FFF710
:101D3000DAFBE8B2FFF7D7FB36E0E748808846F6E3
:101D4000040188421DD1E4488079012804D1E24889
:101D50000088401E001B84B2DF494889FFF7BAFBA8
:101D60002012FFF7C0FBE0B2FFF7BDFBDA4988891C
:101D7000FFF7B0FB2812FFF7B6FBE8B2FFF7B3FBA3
:101D800012E0D5488079012804D1D3480088401E4C
:101D9000001B84B2D04948892146FFF7B6FBCE49E3
:101DA00088892946FFF7B1FBCB480089CB490880D9
:101DB0004FF0D840A0F8806070BD70B52DED048B59
:101DC0000446BE20FFF786FB0520FFF78CFB20466C
:101DD00006F0AAF941EC190B9FEDC10B53EC102B47
:101DE00006F0B6F941EC180B06F05AF985B2284610
:101DF000FFF779FB0120FFF776FBFF20FFF773FB6E
:101E00000020FFF770FB0020FFF76DFBBDEC048B9B
:101E100070BD10B50446002C66D1AF498871F02022
:101E200008804FF4A07048800846808849F241310C
:101E300088420BD0A848808846F60401884205D025
:101E4000A548808845F2103188421AD12C20A24939
:101E500008812A2048812B2088810846808846F600
:101E60000401884205D09C48808845F210318842A0
:101E700006D14FF4A070984908804FF4F070488064
:101E8000A1E09548808845F21051884210D14FF466
:101E90003050914908814FF4285048814FF42C501C
:101EA00088814FF4F07008804FF4487048808AE0D1
:101EB0008948808841F6631188420DD12C208649DB
:101EC00008812B2048812A2088814FF4F0700880F7
:101ED0004FF44870488076E022207F490881202016
:101EE0004881212088816EE001207B4988714FF470
:101EF000A0700880F02048800846808849F241316F
:101F0000884205D07448808845F21031884207D154
:101F10002C20714908812A2048812B2088813FE0AC
:101F20006D48808846F60401884207D12C206A4912
:101F300008812B2048812A20888131E066488088EA
:101F400045F21051884210D14FF430506249088157
:101F50004FF4285048814FF42C5088814FF448703A
:101F600008804FF4F07048801AE05B48808841F6A2
:101F7000631188420DD12C20574908812A204881BD
:101F80002B2088814FF4487008804FF4F07048800F
:101F900006E02220504908812120488120208881A4
:101FA0004D48808846F60401884205D04A4880881A
:101FB00045F21031884206D14FF4F070464908804E
:101FC0004FF4A07048800020FFF7B3FC10BD2DE94E
:101FD000F04F86B004460D469046994604EB080043
:101FE000401E86B205EB0900401E87B23A48808841
:101FF00049F24131884215D03748808845F2103186
:1020000088420FD03448808846F60401884209D0BF
:1020100031488079012826D12F48808841F6631104
:10202000884220D12C494889FFF754FA2012FFF743
:102030005AFAE0B2FFF757FA3012FFF754FAF0B24B
:10204000FFF751FA24498889FFF744FA2812FFF76D
:102050004AFAE8B2FFF747FA3812FFF744FAF8B243
:10206000FFF741FAC1E01C48808841F663118842BD
:102070003DD119480088A0EB0800001B84B205EB95
:102080000900401E1FFA80F913494889FFF722FA18
:102090002012FFF728FAE0B2FFF725FA04EB080157
:1020A000491EC1F30F20FFF71EFA04EB0801491E79
:1020B000C8B2FFF718FA08498889FFF70BFA281207
:1020C000FFF711FAE8B2FFF70EFA4FEA2920FFF7FF
:1020D0000AFA09F0FF0007E06C0000207E00006CA7
:1020E0006666666666660440FFF7FDF97DE0FE48B9
:1020F000808845F21051884244D1FB494889FFF756
:10210000E9F92012FFF7EFF9F7494989491C88B22C
:10211000FFF7E0F9E0B2FFF7E6F9F3494989891CD6
:1021200088B2FFF7D7F93012FFF7DDF9EE49498998
:10213000C91C88B2FFF7CEF9F0B2FFF7D4F9EA492B
:102140008889FFF7C7F92812FFF7CDF9E649898991
:10215000491C88B2FFF7BEF9E8B2FFF7C4F9E249BB
:102160008989891C88B2FFF7B5F93812FFF7BBF9E6
:10217000DD498989C91C88B2FFF7ACF9F8B2FFF7CD
:10218000B2F932E0D848807901280ED1AA46BB4680
:10219000D5480088801B401E80B20190D24800883C
:1021A000001B401E80B2009003E0A246B34601959A
:1021B0000097502005905120049052200390532006
:1021C000029051460598FFF7A0F959460498FFF789
:1021D0009CF901990398FFF798F900990298FFF785
:1021E00094F929462046FFF7BFF906B0BDE8F08F05
:1021F00070B504460026BC48058840884543BA4867
:10220000808846F60401884216D1B74880790128B3
:1022100012D10020B44988712A2048812B2088815E
:1022200000210846FFF7A0F90120AF4988712B2053
:1022300048812A20888103E000210846FFF794F9AD
:10224000FFF775F9002602E0A8480480761CAE422C
:10225000FAD370BD00B5A1B00020209001217A20F2
:1022600005F044FA0121084605F078FA4FF40040E1
:102270001E9001208DF87C0000208DF87E00022049
:102280008DF87D0001208DF87F001EA9984804F08C
:10229000ABFC4CF233701E9002208DF87C000020C5
:1022A0008DF87E0003208DF87D0001208DF87F00E1
:1022B0001EA9904804F098FC4FF680701E900220F2
:1022C0008DF87C0000208DF87E0003208DF87D00C5
:1022D00001208DF87F001EA9874804F085FC4FF48B
:1022E00080501E9002208DF87C0000208DF87E002A
:1022F00003208DF87D0001208DF87F001EA97F4806
:1023000004F072FC4FF480501E9002208DF87C0087
:1023100000208DF87E0003208DF87D0001208DF8CF
:102320007F001EA9764804F05FFC0C220021714852
:1023300004F0E5FC0C2201216E4804F0E0FC0C22C4
:1023400004216C4804F0DBFC0C220521694804F0F0
:10235000D6FC0C220821674804F0D1FC0C2209218C
:10236000644804F0CCFC0C220A21624804F0C7FC4B
:102370000C220E215F4804F0C2FC0C220F215D48A4
:1023800004F0BDFC0C2207215B4804F0B8FC0C22D1
:102390000821594804F0B3FC0C220921564804F0E6
:1023A000AEFC0C220A21544804F0A9FC0C220B219B
:1023B000514804F0A4FC0C2211464F4804F09FFC45
:1023C0000C220D214C4804F09AFC0C220E214A48A4
:1023D00004F095FC0C220F21474804F090FC0C22DD
:1023E0001146464804F08BFC0C221146444804F088
:1023F00086FC0F200890002009903C200A900020C5
:102400000B900C900D900E900920019000200290EE
:102410000820039000200490059006900790062065
:102420000F90002010901190102012900020139017
:1024300015901490169017904FF48050189000202B
:1024400019904FF480401A9000201B9008A81C900F
:1024500001A81D900FA804F0A6FC0121062004F09D
:102460002DFD322004F0E4F901210020FFF74DF8A2
:10247000322004F0DDF90020FFF74EF81A49888079
:1024800008468088FF280ADB084680884FF6FF71DF
:10249000884204D014488088B0F5134F7ED1D320F1
:1024A000FFF718F8FFF729F80F498880FFF725F89C
:1024B0000D498880FFF721F80B49888008468088FD
:1024C0004FF6FF7101EA002007498880FFF715F8F1
:1024D000054989880843044988800846808849F26C
:1024E000413188425AD00DE06C0000208000006C21
:1024F00000040240000C02400010024000140240A0
:1025000000180240BF20FEF7E5FFFEF7F6FFFE4988
:102510008880FEF7F2FFFC498880FEF7EEFFFA495B
:102520008880FEF7EAFFF8498880084680884FF6E1
:10253000FF7101EA0020F4498880FEF7DEFFF249CE
:1025400089880843F04988800846808846F6040157
:1025500088427AD0D420FEF7BDFFFEF7CEFFEA49CD
:102560008880FEF7CAFFE8498880FEF7C6FFE64983
:102570008880084680884FF6FF7101EA0020E24912
:102580008880FEF7BAFFE04989880843DE498880E1
:102590000846808845F21031884200E055E054D06A
:1025A0004FF45A40FEF796FFFEF7A7FFD649888002
:1025B0004FF45B40FEF78EFFFEF79FFFD249888005
:1025C000084680884FF6FF7101EA0020CE498880D6
:1025D0004FF45C40FEF77EFFFEF78FFFCA49898803
:1025E0000843C949888008468088B0F5004F02D169
:1025F00045F210508880C448808845F210518842C6
:1026000023D0A120FEF766FFFEF777FFBE49888042
:10261000FEF773FFBC498880084680884FF6FF713B
:1026200001EA0020B8498880FEF767FFB64989882B
:102630000843B54988800846808845F26171884220
:1026400003D141F66310B0498880AF48808849F2D1
:102650004131884211D0AC48808845F2103188421F
:102660000BD0A948808845F21051884205D0A64871
:10267000808841F6631188421DD1A448006820F08B
:102680000F004FF02041C1F81C010846D0F81C0192
:1026900020F47060C1F81C010846D0F81C0140F01D
:1026A0000300C1F81C010846D0F81C0140F400707A
:1026B000C1F81C0128E09448808846F6040188424D
:1026C00005D0914880884CF2055188421CD18F4832
:1026D000006820F00F004FF02041C1F81C010846AF
:1026E000D0F81C0120F47060C1F81C010846D0F835
:1026F0001C0140F00A00C1F81C010846D0F81C017A
:1027000040F44060C1F81C017F48818880A005F03A
:102710006DFB7D48808849F2413188427ED1CF20CF
:10272000FEF7D8FE0020FEF7DEFEC120FEF7DBFE3E
:102730003020FEF7D8FEED20FEF7CCFE6420FEF739
:10274000D2FE0320FEF7CFFE1220FEF7CCFE812042
:10275000FEF7C9FEE820FEF7BDFE8520FEF7C3FEAA
:102760001020FEF7C0FE7A20FEF7BDFECB20FEF75C
:10277000B1FE3920FEF7B7FE2C20FEF7B4FE002094
:10278000FEF7B1FE3420FEF7AEFE0220FEF7ABFEF0
:10279000F720FEF79FFE2020FEF7A5FEEA20FEF7B9
:1027A00099FE0020FEF79FFE0020FEF79CFEC02051
:1027B000FEF790FE1B20FEF796FEC120FEF78AFE74
:1027C0000120FEF790FEC520FEF784FE3020FEF7C4
:1027D0008AFE3020FEF787FEC720FEF77BFEB7207B
:1027E000FEF781FE3620FEF775FE4820FEF77BFEE1
:1027F0003A20FEF76FFE5520FEF775FEB120FEF77A
:1028000069FE0020FEF76FFE1A20FEF76CFEB62070
:10281000FEF760FE0A20FEF766FE00E0A5E0A220BB
:10282000FEF761FEF220FEF755FE0020FEF75BFE8C
:102830002620FEF74FFE0120FEF755FEE020FEF7B2
:1028400049FE0F20FEF74FFE2A20FEF74CFE2820FF
:10285000FEF749FE0820FEF746FE0E20FEF743FE77
:102860000820FEF740FE5420FEF73DFEA920FEF7AB
:102870003AFE4320FEF737FE0A20FEF734FE0F2013
:10288000FEF731FE0020FEF72EFE0020FEF72BFEA5
:102890000020FEF728FE0020FEF725FEE120FEF7CF
:1028A00019FE0020FEF71FFE1520FEF71CFE172064
:1028B000FEF719FE0720FEF716FE1120FEF713FEA5
:1028C0000620FEF710FE2B20FEF70DFE5620FEF729
:1028D0000AFE3C20FEF707FE0520FEF704FE10204E
:1028E000FEF701FE0F20FEF7FEFD3F20FEF7FBFD89
:1028F0003F20FEF7F8FD0F20FEF7F5FD2B20FEF739
:10290000E9FD00200CE000006C0000201C0100A08C
:10291000204C43442049443A25780D0A0000000029
:10292000FEF7E1FD0020FEF7DEFD0120FEF7DBFDF6
:102930003F20FEF7D8FD2A20FEF7CCFD0020FEF751
:10294000D2FD0020FEF7CFFD0020FEF7CCFDEF20EA
:10295000FEF7C9FD1120FEF7BDFD782003F068FFEA
:102960002920FEF7B7FD03F01DB9FE48808846F622
:10297000040188427ED11120FEF7ACFD142003F043
:1029800057FFD020FEF7A6FD0720FEF7ACFD422042
:10299000FEF7A9FD1D20FEF7A6FDD120FEF79AFD4A
:1029A0000020FEF7A0FD1A20FEF79DFD0920FEF78E
:1029B0009AFDD220FEF78EFD0120FEF794FD222025
:1029C000FEF791FDC020FEF785FD1020FEF78BFD80
:1029D0003B20FEF788FD0020FEF785FD0220FEF774
:1029E00082FD1120FEF77FFDC520FEF773FD032059
:1029F000FEF779FDC820FEF76DFD0020FEF773FDA0
:102A00002520FEF770FD2120FEF76DFD0520FEF765
:102A10006AFD0020FEF767FD0A20FEF764FD6520D1
:102A2000FEF761FD2520FEF75EFD7720FEF75BFDDA
:102A30005020FEF758FD0F20FEF755FD0020FEF751
:102A400052FDF820FEF746FD0120FEF74CFDFE206A
:102A5000FEF740FD0020FEF746FD0220FEF743FD95
:102A60002020FEF737FD3620FEF734FD0820FEF764
:102A70003AFD00E02AE03A20FEF72CFD5520FEF753
:102A800032FD2B20FEF726FD0020FEF72CFD002056
:102A9000FEF729FD0120FEF726FD3F20FEF723FD6E
:102AA0002A20FEF717FD0020FEF71DFD0020FEF78F
:102AB0001AFD0120FEF717FDDF20FEF714FD782038
:102AC00003F0B6FE2920FEF705FD4CE7A5488088F7
:102AD00045F21031884240F07C87ED20FEF7FAFC89
:102AE0000120FEF700FDFE20FEF7FDFCEE20FEF7C4
:102AF000F1FCDE20FEF7F7FC2120FEF7F4FCF120CC
:102B0000FEF7E8FC0120FEF7EEFCDF20FEF7E2FC1A
:102B10001020FEF7E8FCC420FEF7DCFC8F20FEF757
:102B2000E2FCC620FEF7D6FC0020FEF7DCFCE2202B
:102B3000FEF7D9FCE220FEF7D6FCE220FEF7D3FC3C
:102B4000BF20FEF7C7FCAA20FEF7CDFCB020FEF7A1
:102B5000C1FC0D20FEF7C7FC0020FEF7C4FC0D20D1
:102B6000FEF7C1FC0020FEF7BEFC1120FEF7BBFC07
:102B70000020FEF7B8FC1920FEF7B5FC0020FEF798
:102B8000B2FC2120FEF7AFFC0020FEF7ACFC2D20AC
:102B9000FEF7A9FC0020FEF7A6FC3D20FEF7A3FCF3
:102BA0000020FEF7A0FC5D20FEF79DFC0020FEF754
:102BB0009AFC5D20FEF797FC0020FEF794FCB12004
:102BC000FEF788FC8020FEF78EFC0020FEF78BFCD1
:102BD0008B20FEF788FC0020FEF785FC9620FEF790
:102BE00082FC0020FEF77FFCB220FEF773FC002081
:102BF000FEF779FC0020FEF776FC0220FEF773FC5E
:102C00000020FEF770FC0320FEF76DFC0020FEF7AD
:102C10006AFCB320FEF75EFC0020FEF764FC002097
:102C2000FEF761FC0020FEF75EFC0020FEF75BFC77
:102C30000020FEF758FC0020FEF755FC0020FEF7B0
:102C400052FC0020FEF74FFC0020FEF74CFC002059
:102C5000FEF749FC0020FEF746FC0020FEF743FC8F
:102C60000020FEF740FC0020FEF73DFC0020FEF7B0
:102C70003AFC0020FEF737FC0020FEF734FC002071
:102C8000FEF731FC0020FEF72EFC0020FEF72BFCA7
:102C90000020FEF728FC0020FEF725FC0020FEF7B0
:102CA00022FC0020FEF71FFCB420FEF713FC8B2053
:102CB000FEF719FC0020FEF716FC9620FEF713FC29
:102CC0000020FEF710FCA120FEF70DFC0020FEF70F
:102CD0000AFCB520FEF7FEFB0220FEF704FC0020F4
:102CE000FEF701FC0320FEF7FEFB0020FEF7FBFBD6
:102CF0000420FEF7F8FB0020FEF7F5FBB620FEF7F8
:102D0000E9FB0020FEF7EFFB0020FEF7ECFBB7200D
:102D1000FEF7E0FB0020FEF7E6FB0020FEF7E3FBFA
:102D20003F20FEF7E0FB0020FEF7DDFB5E20FEF714
:102D3000DAFB0020FEF7D7FB6420FEF7D4FB00206F
:102D4000FEF7D1FB8C20FEF7CEFB0020FEF7CBFB7D
:102D5000AC20FEF7C8FB0020FEF7C5FBDC20FEF729
:102D6000C2FB01E06C0000200020FEF7BCFB7020DD
:102D7000FEF7B9FB0020FEF7B6FB9020FEF7B3FB91
:102D80000020FEF7B0FBEB20FEF7ADFB0020FEF7C6
:102D9000AAFBDC20FEF7A7FB0020FEF7A4FBB8206F
:102DA000FEF798FB0020FEF79EFB0020FEF79BFB42
:102DB0000020FEF798FB0020FEF795FB0020FEF7B1
:102DC00092FB0020FEF78FFB0020FEF78CFB00201B
:102DD000FEF789FBBA20FEF77DFB2420FEF783FB7C
:102DE0000020FEF780FB0020FEF77DFB0020FEF7B1
:102DF0007AFBC120FEF76EFB2020FEF774FB00205B
:102E0000FEF771FB5420FEF76EFB0020FEF76BFB14
:102E1000FF20FEF768FB0020FEF765FBC220FEF7EF
:102E200059FB0A20FEF75FFB0020FEF75CFB042045
:102E3000FEF759FB0020FEF756FBC320FEF74AFBC6
:102E40003C20FEF750FB0020FEF74DFB3A20FEF73A
:102E50004AFB0020FEF747FB3920FEF744FB002029
:102E6000FEF741FB3720FEF73EFB0020FEF73BFB61
:102E70003C20FEF738FB0020FEF735FB3620FEF73E
:102E800032FB0020FEF72FFB3220FEF72CFB002048
:102E9000FEF729FB2F20FEF726FB0020FEF723FB81
:102EA0002C20FEF720FB0020FEF71DFB2920FEF75B
:102EB0001AFB0020FEF717FB2620FEF714FB00206C
:102EC000FEF711FB2420FEF70EFB0020FEF70BFBA4
:102ED0002420FEF708FB0020FEF705FB2320FEF769
:102EE00002FB0020FEF7FFFA3C20FEF7FCFA002070
:102EF000FEF7F9FA3620FEF7F6FA0020FEF7F3FAAD
:102F00003220FEF7F0FA0020FEF7EDFA2F20FEF750
:102F1000EAFA0020FEF7E7FA2C20FEF7E4FA002098
:102F2000FEF7E1FA2920FEF7DEFA0020FEF7DBFAD1
:102F30002620FEF7D8FA0020FEF7D5FA2420FEF767
:102F4000D2FA0020FEF7CFFA2420FEF7CCFA0020B8
:102F5000FEF7C9FA2320FEF7C6FA0020FEF7C3FAEF
:102F6000C420FEF7B7FA6220FEF7BDFA0020FEF794
:102F7000BAFA0520FEF7B7FA0020FEF7B4FA84206B
:102F8000FEF7B1FA0020FEF7AEFAF020FEF7ABFA3A
:102F90000020FEF7A8FA1820FEF7A5FA0020FEF799
:102FA000A2FAA420FEF79FFA0020FEF79CFA182050
:102FB000FEF799FA0020FEF796FA5020FEF793FAF2
:102FC0000020FEF790FA0C20FEF78DFA0020FEF7A5
:102FD0008AFA1720FEF787FA0020FEF784FA952078
:102FE000FEF781FA0020FEF77EFAF320FEF77BFA67
:102FF0000020FEF778FAE620FEF775FA0020FEF7CB
:1030000072FAC520FEF766FA3220FEF76CFA00204D
:10301000FEF769FA4420FEF766FA0020FEF763FA2D
:103020006520FEF760FA0020FEF75DFA7620FEF7D5
:103030005AFA0020FEF757FA8820FEF754FA0020CB
:10304000FEF751FAC620FEF745FA2020FEF74BFAAC
:103050000020FEF748FA1720FEF745FA0020FEF799
:1030600042FA0120FEF73FFA0020FEF73CFAC720A3
:10307000FEF730FA0020FEF736FA0020FEF733FAAA
:103080000020FEF730FA0020FEF72DFAC820FEF7E8
:1030900021FA0020FEF727FA0020FEF724FA00208C
:1030A000FEF721FA0020FEF71EFAC920FEF712FAF9
:1030B0000020FEF718FA0020FEF715FA0020FEF7B0
:1030C00012FA0020FEF70FFA0020FEF70CFA00209B
:1030D000FEF709FA0020FEF706FA0020FEF703FAD1
:1030E0000020FEF700FA0020FEF7FDF90020FEF7B1
:1030F000FAF90020FEF7F7F90020FEF7F4F90020B6
:10310000FEF7F1F90020FEF7EEF90020FEF7EBF9EB
:10311000E020FEF7DFF91620FEF7E5F90020FEF7C4
:10312000E2F91C20FEF7DFF90020FEF7DCF9212090
:10313000FEF7D9F90020FEF7D6F93620FEF7D3F9CD
:103140000020FEF7D0F94620FEF7CDF90020FEF76B
:10315000CAF95220FEF7C7F90020FEF7C4F964202F
:10316000FEF7C1F90020FEF7BEF97A20FEF7BBF9A1
:103170000020FEF7B8F98B20FEF7B5F90020FEF726
:10318000B2F99920FEF7AFF90020FEF7ACF9A820BC
:10319000FEF7A9F90020FEF7A6F9B920FEF7A3F97A
:1031A0000020FEF7A0F9C420FEF79DF90020FEF7ED
:1031B0009AF9CA20FEF797F90020FEF794F9D22079
:1031C000FEF791F90020FEF78EF9D920FEF78BF972
:1031D0000020FEF788F9E020FEF785F90020FEF7D1
:1031E00082F9F320FEF77FF90020FEF77CF9E12059
:1031F000FEF770F91620FEF776F90020FEF773F956
:103200001C20FEF770F90020FEF76DF92220FEF772
:103210006AF90020FEF767F93620FEF764F900200E
:10322000FEF761F94520FEF75EF90020FEF75BF935
:103230005220FEF758F90020FEF755F96420FEF7FA
:1032400052F90020FEF74FF97A20FEF74CF90020E2
:10325000FEF749F98B20FEF746F90020FEF743F907
:103260009920FEF740F90020FEF73DF9A820FEF76F
:103270003AF90020FEF737F9B920FEF734F90020BB
:10328000FEF731F9C420FEF72EF90020FEF72BF9E6
:10329000CA20FEF728F90020FEF725F9D220FEF714
:1032A00022F90020FEF71FF9D820FEF71CF90020B4
:1032B000FEF719F9E020FEF716F90020FEF713F9E2
:1032C000F320FEF710F90020FEF70DF9E220FEF7DB
:1032D00001F90520FEF707F90020FEF704F90B209D
:1032E000FEF701F90020FEF7FEF81B20FEF7FBF8C1
:1032F0000020FEF7F8F83420FEF7F5F80020FEF77E
:10330000F2F84420FEF7EFF80020FEF7ECF84F202B
:10331000FEF7E9F80020FEF7E6F86120FEF7E3F893
:103320000020FEF7E0F87920FEF7DDF80020FEF738
:10333000DAF88820FEF7D7F80020FEF7D4F89720B7
:10334000FEF7D1F80020FEF7CEF8A620FEF7CBF866
:103350000020FEF7C8F8B720FEF7C5F80020FEF7FA
:10336000C2F8C220FEF7BFF80020FEF7BCF8C72065
:10337000FEF7B9F80020FEF7B6F8D120FEF7B3F853
:103380000020FEF7B0F8D620FEF7ADF80020FEF7DB
:10339000AAF8DD20FEF7A7F80020FEF7A4F8F32036
:1033A000FEF7A1F80020FEF79EF8E320FEF792F862
:1033B0000520FEF798F80020FEF795F80A20FEF7A2
:1033C00092F80020FEF78FF81C20FEF78CF8002002
:1033D000FEF789F83320FEF786F80020FEF783F821
:1033E0004420FEF780F80020FEF77DF85020FEF71D
:1033F0007AF80020FEF777F86220FEF774F80020D4
:10340000FEF771F87820FEF76EF80020FEF76BF8F3
:103410008820FEF768F80020FEF765F89720FEF791
:1034200062F80020FEF75FF8A620FEF75CF80020A7
:10343000FEF759F8B720FEF756F80020FEF753F8CC
:10344000C220FEF750F80020FEF74DF8C720FEF727
:103450004AF80020FEF747F8D120FEF744F8002094
:10346000FEF741F8D520FEF73EF80020FEF73BF8C6
:10347000DD20FEF738F80020FEF735F8F320FEF7E0
:1034800032F80020FEF72FF8E420FEF723F80120A1
:10349000FEF729F80020FEF726F80120FEF723F8B2
:1034A0000020FEF720F80220FEF71DF80020FEF7AE
:1034B0001AF82A20FEF717F80020FEF714F83C202F
:1034C000FEF711F80020FEF70EF84B20FEF70BF880
:1034D0000020FEF708F85D20FEF705F80020FEF753
:1034E00002F87420FDF7FFFF0020FDF7FCFF8420A9
:1034F000FDF7F9FF0020FDF7F6FF9320FDF7F3FF3E
:103500000020FDF7F0FFA220FDF7EDFF0020FDF702
:10351000EAFFB320FDF7E7FF0020FDF7E4FFBE2040
:10352000FDF7E1FF0020FDF7DEFFC420FDF7DBFF24
:103530000020FDF7D8FFCD20FDF7D5FF0020FDF7D7
:10354000D2FFD320FDF7CFFF0020FDF7CCFFDD2019
:10355000FDF7C9FF0020FDF7C6FFF320FDF7C3FF0D
:103560000020FDF7C0FFE520FDF7B4FF0020FDF7C8
:10357000BAFF0020FDF7B7FF0020FDF7B4FF0020E1
:10358000FDF7B1FF0220FDF7AEFF0020FDF7ABFF16
:103590002920FDF7A8FF0020FDF7A5FF3C20FDF73F
:1035A000A2FF0020FDF79FFF4B20FDF79CFF0020AE
:1035B000FDF799FF5D20FDF796FF0020FDF793FFD3
:1035C0007420FDF790FF0020FDF78DFF8420FDF7AC
:1035D0008AFF0020FDF787FF9320FDF784FF00207E
:1035E000FDF781FFA220FDF77EFF0020FDF77BFFA6
:1035F000B320FDF778FF0020FDF775FFBE20FDF733
:1036000072FF0020FDF76FFFC420FDF76CFF002064
:10361000FDF769FFCD20FDF766FF0020FDF763FF92
:10362000D320FDF760FF0020FDF75DFFDC20FDF7F4
:103630005AFF0020FDF757FFF320FDF754FF00204D
:10364000FDF751FFE620FDF745FF1120FDF74BFF89
:103650000020FDF748FF3420FDF745FF0020FDF76F
:1036600042FF5620FDF73FFF0020FDF73CFF76208C
:10367000FDF739FF0020FDF736FF7720FDF733FF18
:103680000020FDF730FF6620FDF72DFF0020FDF73D
:103690002AFF8820FDF727FF0020FDF724FF99204F
:1036A000FDF721FF0020FDF71EFFBB20FDF71BFFEC
:1036B0000020FDF718FF9920FDF715FF0020FDF70A
:1036C00012FF6620FDF70FFF0020FDF70CFF5520CD
:1036D000FDF709FF0020FDF706FF5520FDF703FF6A
:1036E0000020FDF700FF4520FDF7FDFE0020FDF75F
:1036F000FAFE4320FDF7F7FE0020FDF7F4FE44201C
:10370000FDF7F1FE0020FDF7EEFEE720FDF7E2FEFB
:103710003220FDF7E8FE0020FDF7E5FE5520FDF71D
:10372000E2FE0020FDF7DFFE7620FDF7DCFE002044
:10373000FDF7D9FE6620FDF7D6FE0020FDF7D3FE8B
:103740006720FDF7D0FE0020FDF7CDFE6720FDF7D6
:10375000CAFE0020FDF7C7FE8720FDF7C4FE00204B
:10376000FDF7C1FE9920FDF7BEFE0020FDF7BBFE70
:10377000BB20FDF7B8FE0020FDF7B5FE9920FDF750
:10378000B2FE0020FDF7AFFE7720FDF7ACFE002073
:10379000FDF7A9FE4420FDF7A6FE0020FDF7A3FEDD
:1037A0005620FDF7A0FE0020FDF79DFE2320FDF72B
:1037B0009AFE0020FDF797FE3320FDF794FE0020CF
:1037C000FDF791FE4520FDF78EFE0020FDF78BFEF4
:1037D000E820FDF77FFE0020FDF785FE0020FDF7C5
:1037E00082FE9920FDF77FFE0020FDF77CFE8720FA
:1037F000FDF779FE0020FDF776FE8820FDF773FEC9
:103800000020FDF770FE7720FDF76DFE0020FDF72C
:103810006AFE6620FDF767FE0020FDF764FE882043
:10382000FDF761FE0020FDF75EFEAA20FDF75BFEBE
:103830000020FDF758FEBB20FDF755FE0020FDF7E8
:1038400052FE9920FDF74FFE0020FDF74CFE66204A
:10385000FDF749FE0020FDF746FE5520FDF743FE2B
:103860000020FDF740FE5520FDF73DFE0020FDF74E
:103870003AFE4420FDF737FE0020FDF734FE4420D9
:10388000FDF731FE0020FDF72EFE5520FDF72BFE43
:103890000020FDF728FEE920FDF71CFEAA20FDF719
:1038A00022FE0020FDF71FFE0020FDF71CFE002079
:1038B000FDF719FE0020FDF70DFEAA20FDF713FE0F
:1038C000CF20FDF707FE0020FDF70DFE0020FDF7DD
:1038D0000AFE0020FDF707FE0020FDF704FE002091
:1038E000FDF701FE0020FDF7FEFD0020FDF7FBFDCA
:1038F0000020FDF7F8FD0020FDF7F5FD0020FDF7A5
:10390000F2FD0020FDF7EFFD0020FDF7ECFD0020AB
:10391000FDF7E9FD0020FDF7E6FD0020FDF7E3FDE2
:103920000020FDF7E0FD0020FDF7DDFDF020FDF7B4
:10393000D1FD0020FDF7D7FD5020FDF7D4FD00207C
:10394000FDF7D1FD0020FDF7CEFD0020FDF7CBFDFA
:10395000F320FDF7BFFD0020FDF7C5FDF920FDF7C1
:10396000B9FD0620FDF7BFFD1020FDF7BCFD2920A5
:10397000FDF7B9FD0020FDF7B6FD3A20FDF7AAFDE1
:103980005520FDF7B0FD1120FDF7A4FD642002F0E5
:103990004FFF2920FDF79EFD3520FDF79BFD002000
:1039A000FDF7A1FD5120FDF795FDFF20FDF79BFDE3
:1039B0005320FDF78FFD2C20FDF795FD5520FDF7D9
:1039C00089FD8220FDF78FFD2C20FDF783FD02F09D
:1039D000E9B8FE48808845F2105188427ED15521D1
:1039E0004FF47040FDF791FDAA214FF20100FDF761
:1039F0008CFD52214FF20200FDF787FD08214FF2A6
:103A00000300FDF782FD01214FF20400FDF77DFD6B
:103A10000D214FF43040FDF778FD0D214BF20100F0
:103A2000FDF773FD0D214BF20200FDF76EFD342111
:103A30004FF43640FDF769FD34214BF20160FDF78C
:103A400064FD34214BF20260FDF75FFD0D214FF460
:103A50003140FDF75AFD0D214BF20110FDF755FDE8
:103A60000D214BF20210FDF750FD34214FF4374089
:103A7000FDF74BFD34214BF20170FDF746FD34217B
:103A80004BF20270FDF741FD00214FF43240FDF78B
:103A90003CFD00214BF20120FDF737FD00214BF2E8
:103AA0000220FDF732FD24214FF43840FDF72DFDB3
:103AB00024214BF60100FDF728FD24214BF60200DE
:103AC000FDF723FD01214FF43F40FDF71EFD0F21BF
:103AD0004FF43340FDF719FD0F2100E0FEE34BF2F8
:103AE0000130FDF712FD0F214BF20230FDF70DFD05
:103AF00034214FF43940FDF708FD34214BF6011015
:103B0000FDF703FD34214BF60210FDF7FEFC082102
:103B10004FF43540FDF7F9FC08214BF20150FDF759
:103B2000F4FC08214BF20250FDF7EFFC03214FF4A7
:103B30004240FDF7EAFC24214FF43A40FDF7E5FC52
:103B400024214BF60120FDF7E0FC24214BF6022056
:103B5000FDF7DBFC00214FF43C40FDF7D6FC78215B
:103B60004BF60140FDF7D1FC00214BF60240FDF77A
:103B7000CCFC00214FF43D40FDF7C7FC78214BF60B
:103B80000150FDF7C2FC00214BF60250FDF7BDFCD1
:103B900000214FF43E40FDF7B8FC64214BF6016074
:103BA000FDF7B3FC00214FF45140FDF7AEFC33218B
:103BB0004DF20110FDF7A9FC00214DF20210FDF7B6
:103BC000A4FC34214DF20310FDF79FFC00214DF2BF
:103BD0000410FDF79AFC3A214DF20510FDF795FC13
:103BE00000214DF20610FDF790FC4A214DF207101E
:103BF000FDF78BFC00214DF20810FDF786FC5C21DF
:103C00004DF20910FDF781FC00214DF20A10FDF77D
:103C10007CFC81214DF20B10FDF777FC00214DF269
:103C20000C10FDF772FCA6214DF20D10FDF76DFC96
:103C300000214DF20E10FDF768FCE5214DF20F104A
:103C4000FDF763FC01214DF21010FDF75EFC13211E
:103C50004DF21110FDF759FC01214DF21210FDF744
:103C600054FC54214DF21310FDF74FFC01214DF28D
:103C70001410FDF74AFC82214DF21510FDF745FCAA
:103C800001214DF21610FDF740FCCA214DF217102C
:103C9000FDF73BFC02214DF21810FDF736FC002128
:103CA0004DF21910FDF731FC02214DF21A10FDF70B
:103CB0002CFC01214DF21B10FDF727FC02214DF2D7
:103CC0001C10FDF722FC34214DF21D10FDF71DFCE8
:103CD00002214DF21E10FDF718FC67214DF21F1056
:103CE000FDF713FC02214DF22010FDF70EFC84219C
:103CF0004DF22110FDF709FC02214DF22210FDF7D3
:103D000004FCA4214DF22310FDF7FFFB02214DF22C
:103D10002410FDF7FAFBB7214DF22510FDF7F5FB56
:103D200002214DF22610FDF7F0FBCF214DF22710B6
:103D3000FDF7EBFB02214DF22810FDF7E6FBDE213B
:103D40004DF22910FDF7E1FB02214DF22A10FDF79B
:103D5000DCFBF2214DF22B10FDF7D7FB02214DF2D7
:103D60002C10FDF7D2FBFE214DF22D10FDF7CDFBFF
:103D700003214DF22E10FDF7C8FB10214DF22F103C
:103D8000FDF7C3FB03214DF23010FDF7BEFB3321DD
:103D90004DF23110FDF7B9FB03214DF23210FDF762
:103DA000B4FB6D214DF23310FDF7AFFB00214FF452
:103DB0005240FDF7AAFB33214DF20120FDF7A5FB90
:103DC00000214DF20220FDF7A0FB01E06C00002075
:103DD00034214DF20320FDF798FB00214DF2042021
:103DE000FDF793FB3A214DF20520FDF78EFB0021F4
:103DF0004DF20620FDF789FB4A214DF20720FDF721
:103E000084FB00214DF20820FDF77FFB5C214DF281
:103E10000920FDF77AFB00214DF20A20FDF775FB22
:103E200081214DF20B20FDF770FB00214DF20C209B
:103E3000FDF76BFBA6214DF20D20FDF766FB00217F
:103E40004DF20E20FDF761FBE5214DF20F20FDF74D
:103E50005CFB01214DF21020FDF757FB13214DF2C1
:103E60001120FDF752FB01214DF21220FDF74DFB11
:103E700054214DF21320FDF748FB01214DF214208F
:103E8000FDF743FB82214DF21520FDF73EFB01219A
:103E90004DF21620FDF739FBCA214DF21720FDF730
:103EA00034FB02214DF21820FDF72FFB00214DF2CB
:103EB0001920FDF72AFB02214DF21A20FDF725FB00
:103EC00001214DF21B20FDF720FB02214DF21C20A9
:103ED000FDF71BFB34214DF21D20FDF716FB0221DF
:103EE0004DF21E20FDF711FB67214DF21F20FDF75B
:103EF0000CFB02214DF22020FDF707FB84214DF23F
:103F00002120FDF702FB02214DF22220FDF7FDFAF0
:103F1000A4214DF22320FDF7F8FA02214DF22420CE
:103F2000FDF7F3FAB7214DF22520FDF7EEFA022155
:103F30004DF22620FDF7E9FACF214DF22720FDF7BB
:103F4000E4FA02214DF22820FDF7DFFADE214DF2DE
:103F50002920FDF7DAFA02214DF22A20FDF7D5FAE1
:103F6000F2214DF22B20FDF7D0FA02214DF22C2048
:103F7000FDF7CBFAFE214DF22D20FDF7C6FA032105
:103F80004DF22E20FDF7C1FA10214DF22F20FDF742
:103F9000BCFA03214DF23020FDF7B7FA33214DF280
:103FA0003120FDF7B2FA03214DF23220FDF7ADFAD0
:103FB0006D214DF23320FDF7A8FA00214FF4534054
:103FC000FDF7A3FA33214DF20130FDF79EFA0021EF
:103FD0004DF20230FDF799FA34214DF20330FDF72E
:103FE00094FA00214DF20430FDF78FFA3A214DF298
:103FF0000530FDF78AFA00214DF20630FDF785FA0B
:104000004A214DF20730FDF780FA00214DF20830C9
:10401000FDF77BFA5C214DF20930FDF776FA0021BD
:104020004DF20A30FDF771FA81214DF20B30FDF7A8
:104030006CFA00214DF20C30FDF767FAA6214DF223
:104040000D30FDF762FA00214DF20E30FDF75DFAFA
:10405000E5214DF20F30FDF758FA01214DF21030F5
:10406000FDF753FA13214DF21130FDF74EFA0121FD
:104070004DF21230FDF749FA54214DF21330FDF79D
:1040800044FA01214DF21430FDF73FFA82214DF23E
:104090001530FDF73AFA01214DF21630FDF735FAE9
:1040A000CA214DF21730FDF730FA02214DF21830D7
:1040B000FDF72BFA00214DF21930FDF726FA022107
:1040C0004DF21A30FDF721FA01214DF21B30FDF7B8
:1040D0001CFA02214DF21C30FDF717FA34214DF283
:1040E0001D30FDF712FA02214DF21E30FDF70DFAD8
:1040F00067214DF21F30FDF708FA02214DF2203002
:10410000FDF703FA84214DF22130FDF7FEF902217B
:104110004DF22230FDF7F9F9A4214DF22330FDF7DD
:10412000F4F902214DF22430FDF7EFF9B7214DF2F9
:104130002530FDF7EAF902214DF22630FDF7E5F9C9
:10414000CF214DF22730FDF7E0F902214DF2283062
:10415000FDF7DBF9DE214DF22930FDF7D6F902211A
:104160004DF22A30FDF7D1F9F2214DF22B30FDF757
:10417000CCF902214DF22C30FDF7C7F9FE214DF2AA
:104180002D30FDF7C2F903214DF22E30FDF7BDF9B8
:1041900010214DF22F30FDF7B8F903214DF23030E8
:1041A000FDF7B3F933214DF23130FDF7AEF90321BC
:1041B0004DF23230FDF7A9F96D214DF23330FDF7A4
:1041C000A4F900214FF45440FDF79FF933214DF23B
:1041D0000140FDF79AF900214DF20240FDF795F9F3
:1041E00034214DF20340FDF790F900214DF20440D7
:1041F000FDF78BF93A214DF20540FDF786F90021D4
:104200004DF20640FDF781F94A214DF20740FDF7D6
:104210007CF900214DF20840FDF777F95C214DF261
:104220000940FDF772F900214DF20A40FDF76DF9E2
:1042300081214DF20B40FDF768F900214DF20C4051
:10424000FDF763F9A6214DF20D40FDF75EF900215F
:104250004DF20E40FDF759F9E5214DF20F40FDF703
:1042600054F901214DF21040FDF74FF913214DF2A1
:104270001140FDF74AF901214DF21240FDF745F9D1
:1042800054214DF21340FDF740F901214DF2144045
:10429000FDF73BF982214DF21540FDF736F901217A
:1042A0004DF21640FDF731F9CA214DF21740FDF7E6
:1042B0002CF902214DF21840FDF727F900214DF2AB
:1042C0001940FDF722F902214DF21A40FDF71DF9C0
:1042D00001214DF21B40FDF718F900E004E3022133
:1042E0004DF21C40FDF711F934214DF21D40FDF750
:1042F0000CF902214DF21E40FDF707F967214DF23E
:104300001F40FDF702F902214DF22040FDF7FDF8B4
:1043100084214DF22140FDF7F8F802214DF22240B0
:10432000FDF7F3F8A4214DF22340FDF7EEF802214A
:104330004DF22440FDF7E9F8B7214DF22540FDF795
:10434000E4F802214DF22640FDF7DFF8CF214DF2CF
:104350002740FDF7DAF802214DF22840FDF7D5F8A5
:10436000DE214DF22940FDF7D0F802214DF22A401E
:10437000FDF7CBF8F2214DF22B40FDF7C6F80221F4
:104380004DF22C40FDF7C1F8FE214DF22D40FDF716
:10439000BCF803214DF22E40FDF7B7F810214DF285
:1043A0002F40FDF7B2F803214DF23040FDF7ADF894
:1043B00033214DF23140FDF7A8F803214DF2324090
:1043C000FDF7A3F86D214DF23340FDF79EF8002173
:1043D0004FF45540FDF799F833214DF20150FDF7A8
:1043E00094F800214DF20250FDF78FF834214DF280
:1043F0000350FDF78AF800214DF20450FDF785F8CF
:104400003A214DF20550FDF780F800214DF206509B
:10441000FDF77BF84A214DF20750FDF776F80021B1
:104420004DF20850FDF771F85C214DF20950FDF78F
:104430006CF800214DF20A50FDF767F881214DF22A
:104440000B50FDF762F800214DF20C50FDF75DF8BE
:10445000A6214DF20D50FDF758F800214DF20E50F7
:10446000FDF753F8E5214DF20F50FDF74EF801210D
:104470004DF21050FDF749F813214DF21150FDF7A0
:1044800044F801214DF21250FDF73FF854214DF24E
:104490001350FDF73AF801214DF21450FDF735F8AD
:1044A00082214DF21550FDF730F801214DF21650E2
:1044B000FDF72BF8CA214DF21750FDF726F802211F
:1044C0004DF21850FDF721F800214DF21950FDF77B
:1044D0001CF802214DF21A50FDF717F801214DF298
:1044E0001B50FDF712F802214DF21C50FDF70DF89C
:1044F00034214DF21D50FDF708F802214DF21E50F7
:10450000FDF703F867214DF21F50FCF7FEFF022173
:104510004DF22050FCF7F9FF84214DF22150FCF7B9
:10452000F4FF02214DF22250FCF7EFFFA4214DF2DF
:104530002350FCF7EAFF02214DF22450FCF7E5FF7F
:10454000B7214DF22550FCF7E0FF02214DF2265035
:10455000FCF7DBFFCF214DF22750FCF7D6FF0221FD
:104560004DF22850FCF7D1FFDE214DF22950FCF727
:10457000CCFF02214DF22A50FCF7C7FFF2214DF289
:104580002B50FCF7C2FF02214DF22C50FCF7BDFF6F
:10459000FE214DF22D50FCF7B8FF03214DF22E50B5
:1045A000FCF7B3FF10214DF22F50FCF7AEFF0321B3
:1045B0004DF23050FCF7A9FF33214DF23150FCF79A
:1045C000A4FF03214DF23250FCF79FFF6D214DF205
:1045D0003350FCF79AFF00214FF45640FCF795FF4B
:1045E00033214DF20160FCF790FF00214DF2026093
:1045F000FCF78BFF34214DF20360FCF786FF0021AE
:104600004DF20460FCF781FF3A214DF20560FCF7A2
:104610007CFF00214DF20660FCF777FF4A214DF246
:104620000760FCF772FF00214DF20860FCF76DFF98
:104630005C214DF20960FCF768FF00214DF20A6031
:10464000FCF763FF81214DF20B60FCF75EFF002158
:104650004DF20C60FCF759FFA6214DF20D60FCF7FE
:1046600054FF00214DF20E60FCF74FFFE5214DF2A3
:104670000F60FCF74AFF01214DF21060FCF745FF87
:1046800013214DF21160FCF740FF01214DF2126041
:10469000FCF73BFF54214DF21360FCF736FF01217C
:1046A0004DF21460FCF731FF82214DF21560FCF7EA
:1046B0002CFF01214DF21660FCF727FFCA214DF2B5
:1046C0001760FCF722FF02214DF21860FCF71DFF76
:1046D00000214DF21960FCF718FF02214DF21A601B
:1046E000FCF713FF01214DF21B60FCF70EFF0221C6
:1046F0004DF21C60FCF709FF34214DF21D60FCF700
:1047000004FF02214DF21E60FCF7FFFE67214DF20F
:104710001F60FCF7FAFE02214DF22060FCF7F5FE67
:1047200084214DF22160FCF7F0FE02214DF222605F
:10473000FCF7EBFEA4214DF22360FCF7E6FE02211C
:104740004DF22460FCF7E1FEB7214DF22560FCF745
:10475000DCFE02214DF22660FCF7D7FECF214DF2A0
:104760002760FCF7D2FE02214DF22860FCF7CDFE57
:10477000DE214DF22960FCF7C8FE02214DF22A60CD
:10478000FCF7C3FEF2214DF22B60FCF7BEFE0221C6
:104790004DF22C60FCF7B9FEFE214DF22D60FCF7C6
:1047A000B4FE03214DF22E60FCF7AFFE10214DF256
:1047B0002F60FCF7AAFE03214DF23060FCF7A5FE46
:1047C00033214DF23160FCF7A0FE03214DF232603F
:1047D000FCF79BFE6D214DF23360FCF796FE5521F0
:1047E0004FF47040FCF791FEAA214FF20100FCF754
:1047F0008CFE52214FF20200FCF787FE08214FF297
:104800000300FCF782FE00214FF20400FCF77DFE5E
:10481000CC214FF43140FCF778FE00214BF201101F
:10482000FCF773FE05214FF43640FCF76EFE702155
:104830004FF43740FCF769FE70214BF20170FCF732
:1048400064FE01214FF43840FCF75FFE03214BF674
:104850000100FCF75AFE03214BF60200FCF755FE5F
:1048600003214BF60300FCF750FE02214FF43C40BD
:10487000FCF74BFE00214BF60140FCF746FE002101
:104880004BF60240FCF741FED0214FF44940FCF7C3
:104890003CFE02214CF60110FCF737FE50214CF68D
:1048A0000210FCF732FE50214CF60310FCF72DFEEF
:1048B00050214CF60410FCF728FE00214FF4545010
:1048C000FCF723FE55214FF46850FCF71EFE4FF411
:1048D0008850FCF7FFFD782001F062FF4FF4245070
:1048E000FCF7F8FD01F05EB9FE48808849F22531F9
:1048F00088427DD147F6F001E520FCF706FE4FF433
:1049000080710120FCF701FE4FF4E0610220FCF70A
:10491000FCFD41F230010320FCF7F7FD00210420EB
:10492000FCF7F3FD40F202210820FCF7EEFD002128
:104930000920FCF7EAFD00210A20FCF7E6FD002132
:104940000C20FCF7E2FD00210D20FCF7DEFD00212C
:104950000F20FCF7DAFD00211020FCF7D6FD07211F
:104960001120FCF7D2FD00211220FCF7CEFD002122
:104970001320FCF7CAFD00210720FCF7C6FD41F219
:1049800090611020FCF7C1FD40F227211120FCF7B7
:10499000BCFD9D211220FCF7B8FD4FF4C851132037
:1049A000FCF7B3FD25212920FCF7AFFD0D212B20BD
:1049B000FCF7ABFD07213020FCF7A7FD40F20331E7
:1049C0003120FCF7A2FD03213220FCF79EFD40F2CE
:1049D00006213520FCF799FD08213620FCF795FDCE
:1049E00040F206413720FCF790FD4FF4417100E0A2
:1049F00058E03820FCF789FD07213920FCF785FDB8
:104A000040F202613C20FCF780FD08213D20FCF7CC
:104A10007CFD00215020FCF778FDEF215120FCF7B0
:104A200074FD00215220FCF770FD40F23F1153202D
:104A3000FCF76BFD4FF427416020FCF766FD012178
:104A40006120FCF762FD00216A20FCF75EFD002179
:104A50008020FCF75AFD00218120FCF756FD002143
:104A60008220FCF752FD00218320FCF74EFD00213F
:104A70008420FCF74AFD00218520FCF746FD10212B
:104A80009020FCF742FD4FF4C0619220FCF73DFD01
:104A900040F233110720FCF738FD22210020FCF7FB
:104AA00034FD1FE78F48808849F2283188427DD144
:104AB00041F28F01EC20FCF728FD41F23421EF2078
:104AC000FCF723FD4FF480710120FCF71EFD4FF42D
:104AD000E0610220FCF719FD41F230010320FCF7F0
:104AE00014FD00210420FCF710FD40F202210820F3
:104AF000FCF70BFD00210920FCF707FD00210A202F
:104B0000FCF703FD01210C20FCF7FFFC00210D2028
:104B1000FCF7FBFC00210F20FCF7F7FC0021102024
:104B2000FCF7F3FC07211120FCF7EFFC0021122019
:104B3000FCF7EBFC00211320FCF7E7FC0121072028
:104B4000FCF7E3FC322001F073FE41F290411020AB
:104B5000FCF7DBFC40F227211120FCF7D6FC3220C9
:104B600001F066FE8A211220FCF7CFFC322001F012
:104B70005FFE4FF4D0511320FCF7C7FC062129201B
:104B8000FCF7C3FC0D212B20FCF7BFFC322001F009
:104B90004FFE00212020FCF7B8FC00212120FCF76B
:104BA000B4FC322001F044FE002100E075E030202A
:104BB000FCF7ABFC40F204613120FCF7A6FC40F2AC
:104BC00005313220FCF7A1FC00213520FCF79DFCCB
:104BD00040F609413620FCF798FC4FF4017137206C
:104BE000FCF793FC40F201313820FCF78EFC40F2D8
:104BF00007713920FCF789FC00213C20FCF785FC7B
:104C000040F60A213D20FCF780FC322001F010FE26
:104C100000215020FCF779FCEF215120FCF775FCB6
:104C200000215220FCF771FC40F23F115320FCF7A9
:104C30006CFC4FF427416020FCF767FC01216120E8
:104C4000FCF763FC00216A20FCF75FFC0021802058
:104C5000FCF75BFC00218120FCF757FC002182203F
:104C6000FCF753FC00218320FCF74FFC002184203B
:104C7000FCF74BFC00218520FCF747FC102190201D
:104C8000FCF743FC4FF4C0619220FCF73EFC40F27D
:104C900033110720FCF739FC24E61248808849F2DA
:104CA000203188427ED100210846FCF72EFC4FF4CB
:104CB00080710120FCF729FC4FF4E0610220FCF731
:104CC00024FC41F230010320FCF71FFC00210420EA
:104CD000FCF71BFC40F202210820FCF716FC002127
:104CE000092001E06C000020FCF70FFC00210A20E5
:104CF000FCF70BFC01210C20FCF707FC00210D2028
:104D0000FCF703FC00210F20FCF7FFFB322001F031
:104D10008FFD40F201110720FCF7F7FB322001F074
:104D200087FD4FF486511020FCF7EFFB072111207F
:104D3000FCF7EBFB4FF488711220FCF7E6FB4FF415
:104D400030611320FCF7E1FB00212920FCF7DDFB9B
:104D500044F210012B20FCF7D8FB00215020FCF777
:104D6000D4FBEF215120FCF7D0FB00215220FCF7AF
:104D7000CCFB40F23F115320FCF7C7FB4FF41C5112
:104D80006020FCF7C2FB01216120FCF7BEFB002183
:104D90006A20FCF7BAFB00218020FCF7B6FB00215B
:104DA000812000E030E0FCF7B0FB00218220FCF71E
:104DB000ACFB00218320FCF7A8FB00218420FCF73A
:104DC000A4FB00218520FCF7A0FB10219020FCF71C
:104DD0009CFB00219220FCF798FB01219320FCF71B
:104DE00094FB4FF488719520FCF78FFB00219720EE
:104DF000FCF78BFB00219820FCF787FB40F2731136
:104E00000720FCF782FB6DE5FE48808849F23131CE
:104E100088427DD141F21401E720FCF776FB4FF484
:104E200080710120FCF771FB4FF400710220FCF748
:104E30006CFB41F238010320FCF767FB40F20221D2
:104E40000820FCF762FB00210920FCF75EFB002133
:104E50000A20FCF75AFB00210C20FCF756FB00212E
:104E60000D20FCF752FB00210F20FCF74EFB002128
:104E70001020FCF74AFB07211120FCF746FB00211C
:104E80001220FCF742FB00211320FCF73EFBC82058
:104E900001F0CEFC41F290611020FCF736FB40F2AD
:104EA00027211120FCF731FB322001F0C1FC0C213D
:104EB0001220FCF72AFB322001F0BAFC4FF400610B
:104EC0001320FCF722FB11212920FCF71EFB0B21EC
:104ED0002B20FCF71AFB322001F0AAFC0021202035
:104EE000FCF713FB40F23F112120FCF70EFB0021E1
:104EF0003020FCF70AFB4FF483713120FCF705FBEF
:104F000000213220FCF701FB4FF40171352000E055
:104F100064E0FCF7FAFA41F20A613620FCF7F5FA90
:104F200040F207713720FCF7F0FA4FF48371382014
:104F3000FCF7EBFA40F207713920FCF7E6FA40F291
:104F400002413C20FCF7E1FA40F60F413D20FCF71E
:104F5000DCFA00215020FCF7D8FAEF215120FCF7B1
:104F6000D4FA00215220FCF7D0FA40F23F1153202E
:104F7000FCF7CBFA4FF41C516020FCF7C6FA012174
:104F80006120FCF7C2FA00216A20FCF7BEFA00217A
:104F90008020FCF7BAFA00218120FCF7B6FA002144
:104FA0008220FCF7B2FA00218320FCF7AEFA002140
:104FB0008420FCF7AAFA00218520FCF7A6FA10212C
:104FC0009020FCF7A2FA4FF4C0619220FCF79DFA02
:104FD00040F233110720FCF798FA83E4894880886F
:104FE00045F2084188427DD14FF480710120FCF7E1
:104FF0008CFA4FF4E0610220FCF787FA41F23001AD
:105000000320FCF782FA00210420FCF77EFA40F22C
:1050100007210820FCF779FA00210920FCF775FA2E
:1050200000210A20FCF771FA00210C20FCF76DFA30
:1050300000210D20FCF769FA00210F20FCF765FA2A
:10504000142001F0F5FB41F2B0611020FCF75DFA8D
:1050500001211120FCF759FA01211720FCF755FA1C
:105060004FF49C711220FCF750FA4FF400611320AA
:10507000FCF74BFA09212920FCF747FA09212A20DD
:10508000FCF743FA0021A420FCF73FFA002150204E
:10509000FCF73BFAEF215120FCF737FA00215220B0
:1050A000FCF733FA40F23F115320FCF72EFA4FF48D
:1050B0001C516020FCF729FA01216120FCF725FA38
:1050C00000216A20FCF721FA00218020FCF71DFA5C
:1050D00000218120FCF719FA00218220FCF715FA43
:1050E000002100E024E08320FCF70FFA0021842057
:1050F000FCF70BFA00218520FCF707FA132190201A
:10510000FCF703FA00219220FCF7FFF9032193201A
:10511000FCF7FBF94FF488719520FCF7F6F940F2A3
:1051200073110720FCF7F1F9322001F081FBB8E49C
:105130003448808841F2055188427DD10021072002
:10514000FCF7E3F9322001F073FB4FF48E7112206B
:10515000FCF7DBF90121A420FCF7D7F90F21082087
:10516000FCF7D3F908210A20FCF7CFF908210D201C
:10517000FCF7CBF940F207713020FCF7C6F90721A4
:105180003120FCF7C2F940F203613220FCF7BDF98F
:105190004FF4E0613320FCF7B8F940F202213420EB
:1051A000FCF7B3F902213520FCF7AFF941F60F7196
:1051B0003620FCF7AAF940F207713720FCF7A5F971
:1051C00000213820FCF7A1F900213920FCF79DF9D6
:1051D00040F207713A20FCF798F900213B20FCF7D8
:1051E00094F907213C20FCF790F900213D20FCF7C1
:1051F0008CF9322001F01CFB01210720FCF785F916
:10520000012101E06C0000201720FCF77EF932201C
:1052100001F00EFB4FF4BD511020FCF776F940F27F
:1052200017211120FCF771F94FF48F711220FCF750
:105230006CF94FF4706100E098E01320FCF765F919
:1052400000212A20FCF761F90A212920FCF75DF9E9
:105250004FF49F711220FCF758F900215020FCF701
:1052600054F9EF215120FCF750F900215220FCF7AE
:105270004CF940F23F115320FCF747F94FF41C5111
:105280006020FCF742F901216120FCF73EF9002182
:105290006A20FCF73AF900218020FCF736F900215A
:1052A0008120FCF732F900218220FCF72EF9002141
:1052B0008320FCF72AF900218420FCF726F900213D
:1052C0008520FCF722F913219020FCF71EF94FF4FA
:1052D00040719220FCF719F905219320FCF715F98C
:1052E00000219520FCF711F900219720FCF70DF91A
:1052F00000219820FCF709F94FF480710120FCF798
:1053000004F94FF4E0610220FCF7FFF841F23801A4
:105310000320FCF7FAF800210420FCF7F6F800213E
:105320000C20FCF7F2F800210F20FCF7EEF800212A
:105330002020FCF7EAF800212120FCF7E6F82121E3
:105340000720FCF7E2F8142001F072FA612107202F
:10535000FCF7DBF8142001F06BFA40F27311072020
:10536000FCF7D3F8142001F063FA95E4FE48808836
:105370004BF2055188427CD100210846FCF7C5F864
:1053800000210846FCF7C1F800210846FCF7BDF8EB
:1053900000210846FCF7B9F80121A420FCF7B5F874
:1053A000142001F045FA4FF41C516020FCF7ADF8D1
:1053B00040F202210820FCF7A8F84FF405713020D4
:1053C000FCF7A3F843F215713120FCF79EF840F288
:1053D00004613220FCF799F840F616613320FCF79F
:1053E00094F842F211213420FCF78FF84FF4A851C1
:1053F0003520FCF78AF848F207513620FCF785F88B
:1054000041F207413720FCF780F841F20341382090
:10541000FCF77BF820213920FCF777F81A2190203F
:10542000FCF773F800211020FCF76FF8072111201A
:10543000FCF76BF800211220FCF767F8002113201D
:10544000FCF763F8142001F0F3F94FF4E661102043
:10545000FCF75BF840F237111120FCF756F81420E6
:1054600001F0E6F94FF4DC711220FCF74EF814203D
:1054700000E085E001F0DCF94FF470611320FCF7E7
:1054800044F880212A20FCF740F848212920FCF725
:105490003CF8142001F0CCF94FF480710120FCF7A6
:1054A00034F84FF4E0610220FCF72FF841F23801A4
:1054B0000320FCF72AF840F202210820FCF725F827
:1054C00000210A20FCF721F800210C20FCF71DF830
:1054D00000210D20FCF719F830210E20FCF715F8FB
:1054E00000215020FCF711F8EF215120FCF70DF8B6
:1054F00000215220FCF709F840F23F115320FCF73D
:1055000004F84FF41C516020FBF7FFFF01216120DC
:10551000FBF7FBFF00216A20FBF7F7FF112190202A
:10552000FBF7F3FF4FF4C0619220FBF7EEFF40F270
:1055300002419320FBF7E9FF02219420FBF7E5FFEE
:10554000142001F075F901210720FBF7DEFF14207C
:1055500001F06EF961210720FBF7D7FF40F27311CC
:105560000720FBF7D2FF00212020FBF7CEFF002110
:105570002120FBF7CAFF22210020FBF7C6FF11E321
:10558000794880884CF2055188427CD10021084638
:10559000FBF7BBFF00210846FBF7B7FF142001F023
:1055A00047F900210846FBF7B0FF00210846FBF74A
:1055B000ACFF00210846FBF7A8FF00210846FBF7D7
:1055C000A4FF0121A420FBF7A0FF142001F030F973
:1055D0004FF41C516020FBF798FF40F606010820AD
:1055E000FBF793FF40F203713020FBF78EFF0121A0
:1055F0003120FBF78AFF04213220FBF786FF4FF4AE
:1056000081713320FBF781FF4FF440713420FBF7A9
:105610007CFF40F203113520FBF777FF1F21362076
:10562000FBF773FF40F203713720FBF76EFF012198
:105630003820FBF76AFF04213920FBF766FF1521AC
:105640009020FBF762FF4FF482611020FBF75DFFB3
:1056500040F247211120FBF758FF4FF4DE71122072
:10566000FBF753FF4FF460611320FBF74EFF7820E8
:1056700001F0DEF84FF480710120FBF746FF4FF494
:105680000071022000E052E0FBF73FFF41F23001E1
:105690000320FBF73AFF08210A20FBF736FF002121
:1056A0000C20FBF732FF20210E20FBF72EFF0021FC
:1056B0000F20FBF72AFF00212020FBF726FF002107
:1056C0002120FBF722FF3D212A20FBF71EFF14209B
:1056D00001F0AEF82D212920FBF717FF0021502003
:1056E000FBF713FF4DF2EF015120FBF70EFF0021F6
:1056F0005220FBF70AFF40F23F115320FBF705FF52
:1057000000216120FBF701FF00216A20FBF7FDFE6D
:105710004FF440719220FBF7F8FE05219320FBF730
:10572000F4FE4FF480710720FBF7EFFE3AE20E48DB
:10573000808844F2315188427ED101210020FBF75C
:10574000E4FE0A2001F074F841F228611020FBF712
:10575000DCFE0E211220FBF7D8FE40F63921132083
:10576000FBF7D3FE0A2001E06C00002001F060F896
:1057700040211120FBF7C9FE50211520FBF7C5FE83
:105780000A2001F055F81E211220FBF7BEFE0A2068
:1057900001F04EF84FF4B1511020FBF7B6FE42F67F
:1057A00039211320FBF7B1FE0A2001F041F84FF434
:1057B00080710120FBF7A9FE4FF440710220FBF736
:1057C000A4FE41F238010320FBF79FFE40F20221C4
:1057D0000820FBF79AFE08210A20FBF796FE00211D
:1057E0003020FBF792FE40F202413120FBF78DFEA4
:1057F0004FF483713220FBF788FE40F203513320CF
:10580000FBF783FE4FF482713420FBF77EFE40F2FB
:1058100001313520FBF779FE40F207713620FBF7A6
:1058200074FE40F205313720FBF76FFE4FF4027132
:105830003820FBF76AFE00E03EE040F60B713920AD
:10584000FBF763FE02214120FBF75FFE4FF41C5182
:105850006020FBF75AFE01216120FBF756FE4FF452
:1058600004719020FBF751FE4FF485719220FBF7F5
:105870004CFE04219320FBF748FE4FF48071A020DA
:10588000FBF743FE01210720FBF73FFE2121072004
:10589000FBF73BFE23210720FBF737FE33210720D0
:1058A000FBF733FE40F233110720FBF72EFE0021F9
:1058B000A020FBF72AFE75E1F748808844F23551B5
:1058C00088427CD130211520FBF71FFE10219A2041
:1058D000FBF71BFE20211120FBF717FE43F22841A6
:1058E0001020FBF712FE02211220FBF70EFE41F200
:1058F00038011320FBF709FE282000F099FF122140
:105900000846FBF702FE282000F092FF43F22041F8
:105910001020FBF7FAFD43F238011320FBF7F5FDE9
:10592000462000F085FF00213020FBF7EEFD40F21D
:1059300002413120FBF7E9FD40F207313220FBF74D
:10594000E4FD4FF441713320FBF7DFFD04213420E7
:10595000FBF7DBFD40F201413520FBF7D6FD40F2BD
:1059600007713620FBF7D1FD40F205313720FBF7F8
:10597000CCFD4FF4C2613820FBF7C7FD4FF4C26184
:105980003920FBF7C2FD4FF480710120FBF7BDFD0C
:105990004FF440710220FBF7B8FD41F230010320C3
:1059A000FBF7B3FD40F608010820FBF7AEFD082128
:1059B0000A20FBF7AAFD4FF41C51602000E033E001
:1059C000FBF7A3FD01216120FBF79FFD4FF49F71C1
:1059D0009020FBF79AFD4FF480719220FBF795FD24
:1059E0004FF480719320FBF790FD4FF44051A020BD
:1059F000FBF78BFD1021A320FBF787FD012107207A
:105A0000FBF783FD21210720FBF77FFD23210720E2
:105A1000FBF77BFD33210720FBF777FD40F23311C5
:105A20000720FBF772FDBDE09B48808841F66311BB
:105A30008842F8D1E220FBF74DFD1D20FBF753FD16
:105A40000220FBF750FD0420FBF74DFD642000F021
:105A5000A7FEE020FBF73EFD0120FBF744FD0A20F6
:105A600000F0E6FEE020FBF735FD0320FBF73BFDF1
:105A70000C2000F0DDFE0120FBF72CFD0A2000F0D9
:105A8000D7FEE620FBF726FD2F20FBF72CFDFF209D
:105A9000FBF729FDFF20FBF726FDB020FBF71AFDE1
:105AA0002020FBF720FD0020FBF71DFD0320FBF766
:105AB0001AFD40F21F30FBF716FD0120FBF713FD26
:105AC00040F2DF10FBF70FFD0020FBF70CFDB420C8
:105AD000FBF700FD0420FBF706FD40F21F40FBF73B
:105AE00002FD0020FBF7FFFC2E20FBF7FCFC002052
:105AF000FBF7F9FC0020FBF7F6FC0020FBF7F3FCBA
:105B00000020FBF7F0FCB620FBF7E4FC0220FBF7DB
:105B1000EAFC4FF40370FBF7E6FC0020FBF7E3FC24
:105B20001720FBF7E0FC1520FBF7DDFC0020FBF75E
:105B3000DAFC0020FBF7D7FCF020FBF7CBFC0320BE
:105B4000FBF7D1FC2920FBF7C5FCD020FBF7C2FCFA
:105B50000020FBF7C8FCBE20FBF7BCFC0520FBF7D0
:105B6000C2FCFE20FBF7BFFC0120FBF7BCFC0020C1
:105B7000FBF7B9FC0020FBF7B6FC0020FBF7B3FCF9
:105B8000B820FBF7A7FC0320FBF7ADFC0120FBF7D7
:105B9000AAFCBA20FBF79EFC0120FBF7A4FC6420C2
:105BA000FCF70BF90020FCF734F901203B490860B1
:105BB0004FF6FF70FCF71CFB21B000BD2DE9FC4F38
:105BC00005460E4617469846DDF82C9000200190B9
:105BD0003148808846F60401884229D12E488079D0
:105BE000012825D1AB4635462B480088C01B401EF6
:105BF00086B2474628480088A0EB0B00401E1FFADB
:105C000080F80020244988712A2048812B2088812F
:105C100043463A4631462846CDF80090FFF7CEFF7E
:105C200001201D4988712B2048812A2088811DE090
:105C3000781B401C80B20190344615E0214628466E
:105C4000FBF792FCFBF773FC4FF0000A07E04FF004
:105C5000D840A0F880900AF101001FFA80FA01985C
:105C60008245F4DB601C84B24445E7DDBDE8FC8F6F
:105C70002DE9F84F07460D4690469946DDF828B0C5
:105C8000A8EB0700401C1FFA80FAA9EB0500401C96
:105C900080B20090002418E06C000020BC824042DA
:105CA000281981B23846FBF75FFCFBF740FC002661
:105CB00007E004FB0A603BF81000F8490880701CFC
:105CC00086B25645F5DB601C84B200988442E7DB5F
:105CD000BDE8F88F2DE9FF4F84B081468A46002049
:105CE000039002900698A0EB09050798A0EB0A061E
:105CF000CDF80490CDF800A0002D01DD012705E0CE
:105D00000DB9002702E04FF0FF376D42002E02DD93
:105D10004FF0010806E016B94FF0000802E04FF01E
:105D2000FF387642B54201DD2C4600E034464FF0A4
:105D3000000B21E0009A91B2019A90B2FBF76DFF3F
:105D40000398284403900298304402900398A0429C
:105D500005DD0398001B03900198384401900298D8
:105D6000A04205DD0298001B02900098404400907C
:105D70000BF101001FFA80FB601C8345DADD08B0DF
:105D8000BDE8F08FF0B504460D4616461F462B467B
:105D9000324629462046FFF79DFF3B4622462946CC
:105DA0002046FFF797FF3B46324639462046FFF72D
:105DB00091FF3B46324629463046FFF78BFFF0BD48
:105DC0002DE9F04306460F46904600244546032041
:105DD000A0EB48093CE07A1B91B2321990B2FBF774
:105DE0001CFF3A1B91B2721990B2FBF716FF3A19D9
:105DF00091B2721990B2FBF710FF7A1991B2321971
:105E000090B2FBF70AFF7A1991B2321B90B2FBF7FE
:105E100004FF3A1991B2721B90B2FBF7FEFE7A1B97
:105E200091B2321B90B2FBF7F8FE3A1B91B2721B93
:105E300090B2FBF7F2FE641CB9F1000F03DAA00088
:105E4000801D814404E0601B80000A3081446D1E87
:105E5000AC42C0DDBDE8F0832DE9F84F80460E4628
:105E600017461C46B3462046E31704EB5373DB107A
:105E700021464FEAE47C04EB5C7C4FEAEC0CA4EB9B
:105E8000CC0CBCF1000F02D04FF0010C01E04FF040
:105E9000000C6344224604EBD27C4FEA6C0C03FBFB
:105EA0000CF3DBB20093A7F12000C7B2002556E047
:105EB0000C2C07D107EB4700794901EB800010F863
:105EC000059013E0102C05D1764800EB071010F870
:105ED00005900BE0182C07D107EBC700724901EBC6
:105EE000800010F8059001E0BDE8F88F4FF0000A3F
:105EF0002FE009F0800030B16C48028831464046FE
:105F0000FBF799FE07E00A9828B9694802883146EC
:105F10004046FBF790FE4FEA49604FEA1069701C5B
:105F200086B264484088B04200DCDDE7A6EB0B0097
:105F3000A0420AD15E4608F101001FFA80F85D48D0
:105F40000088404500DCCFE706E00AF1010000F0E0
:105F5000FF0ABAF1080FCCDB00BF681CC5B200987D
:105F60008542A5DB00BFBFE710B50246012000E077
:105F700050430B1EA1F10104E1B2F9D110BD2DE98E
:105F8000FF4F81B0074691461E460E9D4FF0000A16
:105F9000002439E0301B401EC1B20A20FFF7E4FFA5
:105FA000B9FBF0F00A21B0FBF1F201FB1208BAF1E3
:105FB000000F16D1701EA04213DDB8F1000F0ED1F4
:105FC0000020AB4605EBDB71491001FB047100902A
:105FD00088B22B4620220299FFF73EFF12E04FF0D5
:105FE000010A0020AB4605EBDB71491001FB04718F
:105FF000009088B208F13001CAB22B460299FFF72F
:106000002BFF00BF601CC4B2B442C3DB05B0BDE8C7
:10601000F08F2DE9FF4F82B0064692461F46DDE91C
:106020000F480020019000255CE0781B401EC1B2A3
:106030000A20FFF799FFBAFBF0F00A21B0FBF1F25A
:1060400001FB1209019840BB781EA84236DDB9F168
:10605000000F31D108F0800078B108F00100A346AC
:1060600004EBDB71491001FB0561009088B2234607
:1060700030220399FFF7F0FE0EE008F00100A3467E
:1060800004EBDB71491001FB0561009088B22346E7
:1060900020220399FFF7E0FE22E00FE08000006C71
:1060A00056830008CA870008BA8D0008280000201F
:1060B0002A0000206C0000200120019008F001005F
:1060C000A34604EBDB71491001FB0561009088B227
:1060D00009F13001CAB223460399FFF7BDFE00BFA4
:1060E000681CC5B2BD42A0DB06B0BDE8F08F2DE94B
:1060F000F84704460D4690469946DDE9096704F0E5
:10610000FF0A08EB04001FFA80F809EB05001FFAEC
:1061100080F916E0444502DB5446A81985B24D4586
:1061200000DB14E0002000903A78334629462046F0
:10613000FFF792FE304606EBD07104EB61018CB2A2
:106140007F1C38787E2802DC38782028E2DA00BF0D
:10615000BDE8F88710B59048006820F440208E49CB
:1061600008600846006840F48020086000208B49E1
:10617000086040F2EE2000F013FB01208849C1F8CE
:10618000A4020F2000F00CFB10BD10B500248248C3
:10619000006820F4402080490860084600680860D4
:1061A00004E0601CC4B2012000F0FAFA7B48803899
:1061B000006808B1C82CF4DBC82C01DB012010BD3D
:1061C000002404E0601CC4B2012000F0E9FA734826
:1061D0008038006808B9F02CF4DBF02C01DB0120DA
:1061E000EDE70020EBE710B56B48006820F4402095
:1061F000694908600846006840F480200860002073
:1062000066490860022000F0CBFA01206449C1F819
:10621000A4026148006820F440205F4908600846F5
:10622000006808600C2000F0BBFA5C488038006809
:1062300008B1012400E00024322000F0B1FA204629
:1062400010BD70B50026012508E0FFF7CCFF04461D
:10625000E00140EA6600C6B2681CC5B2082DF4DD54
:10626000304670BD70B504464B48006820F44020AD
:10627000494908600846006840F48020086001250C
:1062800020E004F0010664106EB10020434908606C
:10629000022000F085FA01204149C1F8A4023C2007
:1062A00000F07EFA0CE000203C4908603C2000F041
:1062B00077FA01203A49C1F8A402022000F070FAEE
:1062C000681CC5B2082DDCDD70BD10B5FFF742FFBC
:1062D000FFF75BFFCC20FFF7C5FF4420FFF7C2FFAD
:1062E00010BD1CB50121402001F000FA4FF40070F0
:1062F000009001208DF8040000208DF80600022097
:106300008DF8050001208DF807006946224800F04D
:106310006BFCFFF71FFFFFF738FF1CBD2DE9F041B5
:106320002DED048BFFF7D1FFFFF714FFFFF72DFFD3
:10633000CC20FFF797FFBE20FFF794FFFFF781FF08
:106340000746FFF77EFF0446072C05DDE043C4B295
:10635000F843C7B2002600E001262546280205B210
:10636000E81905B2284601F0C8FE41EC190B9FED73
:106370000D0B53EC102B01F0EBFE41EC180B01F070
:106380005FFE05B226B12846BDEC048BBDE8F08166
:10639000684200B2F8E7000000180240A40243423D
:1063A00000004342000000000000E43F08B54448FC
:1063B00000684449086044480068486000208860DC
:1063C000C86032200861642048614FF4AF70886172
:1063D0004FF44870C861002008624862182000909D
:1063E00008460323782102694FF49670FFF7C7FD32
:1063F0001820009033480323962142694800FFF794
:10640000BEFD182000902F480323B42182694FF469
:106410009670FFF7B4FD182000902A480323D2217C
:10642000C2694FF49670FFF7AAFD08BD38B524483D
:1064300000682449086024480068486008460068ED
:106440004968401A1F4988600846406A89680844BC
:106450001C4948621820009008460623F021426A31
:106460006620FFF78CFD174840691649496A484382
:106470004FF47A7190FBF1F012490969114A926860
:1064800001FB02000F4989680E4AD268891A0D4A39
:10649000926902FB01000B49C96908440949086275
:1064A00008468068C8600846046A42F20F70844259
:1064B00001DD441E02E0002C00DA0224204638BD33
:1064C000040000207C000020000000207FB505466D
:1064D0000C460121022001F052F90295ADF804406A
:1064E0000020ADF80600ADF80C0001A91B48FAF732
:1064F0002CFA012211461948FAF7C8FE1D208DF822
:10650000000001208DF8010003208DF80200012019
:106510008DF80300684600F076FA01210F48FAF77B
:106520009DFA7FBD10B501210C48FAF7C6FE01287F
:106530000FD100F037F80A480078401C084908706D
:1065400008460078642804DB002008700120054913
:10655000087001210148FAF7C1FE10BD0004004097
:106560002C0000200C0000201CB50121112001F09E
:10657000BDF81C20009000208DF8040003208DF849
:10658000050001208DF807006946484800F02CFB03
:106590000120009002208DF807006946444800F071
:1065A00023FB1CBD10B51021404800F07FFB414982
:1065B000097840EA41003F49087008213B4800F053
:1065C00075FB3C49497840EA41003A49487004214A
:1065D000364800F06BFB3749897840EA410035497D
:1065E00088700121324800F061FB08B9012000E009
:1065F00000203049C97840EA41002E49C870002483
:106600001AE02C48005D50B900202B4908552B4852
:1066100050F82400001D294941F824000AE02548CB
:10662000005DFF2806D10120234908550020234999
:1066300041F82400601CC4B2042CE2DB10BD10B58C
:1066400000242FE01E48005D1B49095D88420AD0E6
:106650001B48005D18B91B49085DF9F736FF16485D
:10666000005D17490855154850F8240098B11348A3
:1066700050F82400144951F82410884210D31149CD
:10668000085DF9F722FF104850F82400C8300E4981
:1066900041F8240004E04FF47A700B4941F82400DB
:1066A000601CC4B2042CCDDB10BD00000010024001
:1066B000000002403800002030000020A40000202C
:1066C0003C000020340000204000002030B58BB09A
:1066D00005460C460121080201F051F80121202055
:1066E00001F004F8092211461E4800F008FB4FF49F
:1066F0000070099002208DF8280000208DF82A00F3
:1067000003208DF8290001208DF82B0009A91548D8
:1067100000F06AFA0795A0B2ADF818000020ADF8B5
:106720001A00ADF8200006A90F48FAF70EF960200C
:10673000ADF804000120ADF806000020ADF810000F
:1067400001A90948FAF796F908210748FAF71FFB4B
:1067500001210548FAF764F901210348FAF77EF9A7
:106760000BB030BD001402400020004010B50446BC
:106770006FF0040000F094F9E11704EB5171C1F3DC
:10678000C701394A11701046007800EB4001C1EB97
:10679000C0104FF6FF7101EAC0003449088010BDF7
:1067A0000146314A12784A434FF0E0235A610022F1
:1067B0009A611A46126942F001021A6100BF4FF055
:1067C000E022106900F001021AB100F48032002AC0
:1067D000F5D04FF0E022126922F001024FF0E023E1
:1067E0001A6100229A6170470146204A12884A4382
:1067F0004FF0E0235A6100229A611A46126942F072
:1068000001021A6100BF4FF0E022106900F001029E
:106810001AB100F48032002AF5D04FF0E02212695C
:1068200022F001024FF0E0231A6100229A617047C2
:1068300070B504464FF4077094FBF0F0C6B24FF405
:10684000077094FBF0F100FB114085B205E04FF4B6
:106850000770FFF7C9FF701EC6B2002EF7D115B141
:106860002846FFF7C1FF70BD5000002052000020F5
:10687000014600BF704700BF4C4A128802F0400238
:10688000002AF9D0C2B2494B9A80704710B588B03F
:1068900004460121084600F029FF0121102000F0E4
:1068A0007FFF07220921424800F029FA07220A2126
:1068B0003F4800F024FA4FF4C060069002208DF8A3
:1068C0001C008DF81D0000208DF81E0001208DF8A1
:1068D0001F0006A9364800F087F902940020ADF8A1
:1068E0000C00ADF80E00ADF81000ADF814000C204F
:1068F000ADF8120002A92D4801F0B3F801212B4890
:1069000001F037F9012240F22551284801F0E7F95A
:1069100025208DF8040003208DF805008DF8060071
:1069200001208DF8070001A800F06DF808B010BD37
:1069300010B540F225511D4801F00CFA10B31B4868
:1069400001F046F9C4B21B48008800F40040C8B901
:106950001848008800F4804060B10A2C03D0002061
:106960001449088020E01348008840F40040114991
:10697000088019E00D2C06D10E48008840F48040B4
:106980000C49088010E00B480088C0F30D000A494C
:106990000C5408480088401C0649088008460088B6
:1069A000C72801DD0020088010BD00000010014054
:1069B0000000024058000020B40000200948804731
:1069C00009480047FEE7FEE7FEE7FEE7FEE7FEE7D1
:1069D000FEE7FEE7FEE7FEE704480549054A064BE9
:1069E00070470000BD06000889010008E001002092
:1069F000E0070020E0030020E003002032490143CB
:106A0000324A1160704770B5002100230F22C4780C
:106A10001CB32E4C246804F4E064C4F5E064C4F3B1
:106A20000721C1F10404E3B20A4144789C40E1B279
:106A30008478144021430C07210E254C05786155BC
:106A4000047804F01F050124AC4005786D11AD00F9
:106A500005F1E025C5F8004109E0047804F01F05C0
:106A60000124AC401B4D0678761145F8264070BDD8
:106A7000194A0A400243154B1B1F1A60704739B16F
:106A8000124A121D12680243104B1B1D1A6006E0C9
:106A90000E4A121D126882430C4B1B1D1A60704770
:106AA000042808D14FF0E021096941F004014FF0BA
:106AB000E022116107E04FF0E021096921F00401B3
:106AC0004FF0E022116170470000FA050CED00E084
:106AD00000E400E080E100E080FFFF1F10B5044605
:106AE0009848844208D10121084600F06AFE00213E
:106AF000012000F066FE76E09348844208D101212F
:106B0000022000F05EFE0021022000F05AFE6AE042
:106B10008E48844208D10121042000F052FE002159
:106B2000042000F04EFE5EE08948844208D1012135
:106B3000082000F046FE0021082000F042FE52E04E
:106B40008448844208D10121102000F03AFE00213F
:106B5000102000F036FE46E07F48844208D1012133
:106B6000202000F02EFE0021202000F02AFE3AE036
:106B70007A48844208D10121402000F022FE002101
:106B8000402000F01EFE2EE07548844208D101210D
:106B9000802000F016FE0021802000F012FE22E08E
:106BA0007048844208D10121801500F00AFE0021BE
:106BB000A01500F006FE16E06B48844208D10121C2
:106BC000401500F0FEFD0021601500F0FAFD0AE01E
:106BD0006648844207D10121001500F0F2FD002132
:106BE000201500F0EEFD10BDF0B50A46002100238F
:106BF000002400BF3DE0012505FA01F3156805EA10
:106C000003049C4234D105684F000326BE40B543BF
:106C1000056015794E00B540066835430560157965
:106C2000012D02D01579022D16D185684F0003265B
:106C3000BE40B543856055794E00B5408668354302
:106C40008560456801268E40B54345604568967964
:106C50008E40B6B235434560C5684F000326BE403E
:106C6000B543C560D5794E00B540C6683543C560AB
:106C7000491C1029BFD3F0BD4FF6FF710160002100
:106C8000017141718171C171704708B54FF4803253
:106C90000092009A0A430092009AC261C161009A70
:106CA000C261C2690092C269009208BD024600201A
:106CB00013690B400BB1012000E000207047014632
:106CC000086980B270470246002053690B400BB13F
:106CD000012000E0002070470146486980B27047FB
:106CE00001837047418370470AB1018300E041830B
:106CF00070474161704742694A4042617047F0B550
:106D0000002300244D07ED0E02FA05F3CE1000F12A
:106D1000200555F826504E07F70E0F26BE40B54306
:106D2000CF1000F1200646F82750CE1000F12005C4
:106D300055F8265045EA0304CE1000F1200545F829
:106D40002640F0BD0000024000040240000802405E
:106D5000000C0240001002400014024000180240E3
:106D6000001C024000200240002402400028024093
:106D700030B943F2DB028100A1F1C0410A6005E0B5
:106D800043F2D2028100A1F1C0410A606FF070426B
:106D9000411C8900A1F1C0410A608100A1F1C041FC
:106DA000C1F804217047D0E901121143C2681143B0
:106DB000026911434269114382691143C269114357
:106DC000026A1143426A1143826A1143C26A114343
:106DD000026B114302689200A2F1C0421160816807
:106DE00008290BD101688900A1F1C041096841F06F
:106DF000400201688900A1F1C0410A60416B096845
:106E0000426B526841EA0211426B926841EA0221E8
:106E1000426B928941EA0241426B128A41EA025175
:106E2000426B127D41EA0261426B92691143026832
:106E3000521C9200A2F1C0421160C16AB1F5804FAC
:106E40001BD1816B0968826B526841EA0211826B27
:106E5000926841EA0221826B128A41EA0251826BF6
:106E6000127D41EA0261826B9269114302689200CD
:106E7000A2F1C042C2F8041107E06FF0704201684D
:106E80008900A1F1C041C1F80421704700210160CF
:106E90000221416000218160C16001614161816125
:106EA000C16101624FF48051416249008162002159
:106EB000C1620163F84941638163704751B1820047
:106EC000A2F1C042126842F001038200A2F1C04266
:106ED000136009E08200A2F1C0421268EF4B1A4031
:106EE0008300A3F1C0431A60704710280AD118210B
:106EF0004FF020421166402151664FF0FC319166FF
:106F0000D16610E01821E64A116040214FF020427E
:106F1000C2F884104FF0FC31E14A083211604FF0A2
:106F20002042C2F88C10704730B5002100220023A7
:106F3000446844F0080485682C43C5682C430569FF
:106F40002C43456944EA4524856944EA4531C469CE
:106F50002468C5696D6844EA0524C5692D8944EA39
:106F60000544C5692D7B44EA0562046A2468056A04
:106F70006D6844EA0524056A2D8944EA0544056ADA
:106F80002D7B44EA05630468102C05D14FF02044A2
:106F90002166A266E36608E0C14C21604FF0204400
:106FA000C4F88820BE4C0C34236030BD1021016031
:106FB000002141608160C160016141618161FC210A
:106FC000C2691160C2695160C2699160C269D160D1
:106FD000026A1160026A5160026A9160026AD160BD
:106FE000704799B1102808D14FF02042126E42F03C
:106FF00004024FF020431A661DE0A94A126842F0CD
:1070000004024FF02043C3F8802014E0102809D177
:107010004FF02042126EA14BDB1E1A404FF020436E
:107020001A6608E09E4A12689C4BDB1E1A404FF01D
:107030002043C3F88020704799B1102808D14FF041
:107040002042126E42F040024FF020431A661DE0CB
:10705000934A126842F040024FF02043C3F8802068
:1070600014E0102809D14FF02042126E8B4B3F3BA9
:107070001A404FF020431A6608E0894A1268874B8D
:107080003F3B1A404FF02043C3F880207047014631
:107090000020102903D14FF02042506F02E0804AB7
:1070A00014321068704718207D4920310860002094
:1070B0000906C1F8A4004FF0FC3079492831086076
:1070C000091D0860091D08607047016841F0100142
:1070D000426841EA4221826841EA4231704A2032E4
:1070E0001160C1680968C268526841EA0221C26839
:1070F000128941EA0241C268127B41EA0261684A90
:1071000028321160016909680269526841EA022166
:107110000269128941EA02410269127B41EA026175
:107120005F4A2C321160416909684269526841EA3C
:1071300002214269128941EA02414269127B41EA15
:1071400002614FF02042C2F8B01070470021016088
:1071500041608160FC21C2681160C2685160C268F0
:107160009160C268D1600269116002695160026970
:1071700091600269D160426911604269516042695F
:1071800091604269D160704748B145492031096832
:1071900041F004014FF02042C2F8A01009E040493C
:1071A000203109683D4AD21E11404FF02042C2F8FA
:1071B000A010704710B5F2B1102807D14FF020434E
:1071C0005B6E0B434FF02044636632E0B0F5807F86
:1071D00008D1334B1B1D1B680B434FF02044C4F8F0
:1071E000843026E02E4B24331B680B434FF02044A1
:1071F000C4F8A4301DE0102807D14FF020435B6E87
:107200008B434FF02044636613E0B0F5807F08D1D4
:10721000234B1B1D1B688B434FF02044C4F8843064
:1072200007E01F4B24331B688B434FF02044C4F806
:10723000A43010BD10B5024600200023102A03D14F
:107240004FF02044636E09E0B2F5807F03D1144C07
:10725000241D236802E0124C2434236803EA01044D
:107260000CB1012000E0002010BD102807D14FF024
:107270002042526E8A434FF020435A6619E0B0F51F
:10728000807F0FD1064A121D12688A434FF02043B7
:10729000C3F884200DE00000189B0008FEFF0F00DB
:1072A000800000A0234A12688A434FF02043C3F8AD
:1072B000A420704770B5024600200023002400255A
:1072C000102A03D14FF02046736E08E0B2F5807F9C
:1072D00003D1184E203E336801E0164E336803EAAE
:1072E000010403EAD10514B10DB1012000E0002032
:1072F00070BD102808D14FF02042526E22EAD10210
:107300004FF020435A6614E0B0F5807F09D1094A56
:10731000203A126822EAD1024FF02043C3F88420B9
:1073200007E0044A126822EAD1024FF02043C3F872
:10733000A4207047A40000A0F948006840F00100B4
:10734000F74908600020F64908310860F4480068F1
:10735000F4490840F2490860F348091D0860F34801
:10736000EF4984310860F0481038091D0860EC4886
:10737000006820F48020EA4908600020E8490C31C8
:107380000860E7498C31086070470021E44A921C8C
:10739000117011460870704710B501460022002395
:1073A00000204A11012A02D1DD4C236808E0022A9C
:1073B00003D1DB4C7034236802E0D94C7434236869
:1073C00001F01F02012494401C400CB1012000E098
:1073D000002010BD38B5002000900024002500BF1B
:1073E0003120FFF7D9FF05460098401C0090009817
:1073F000B0F5A04F01D0002DF2D03120FFF7CCFF27
:1074000008B1012400E00024204638BD01460020D8
:10741000C34A106820F0F80040EAC10010607047CD
:10742000C349086070470021BD4A70321170117065
:10743000012802D004280AD104E00121B84A7032A0
:10744000117005E00521B64A7032117000E000BFEE
:1074500000BF7047B7490860704770B5049C41EAA7
:1074600082150126C6EB530645EA0645054345EA63
:107470000465AB4E361D356070BDAD49086670477A
:10748000820142EA0172A64B84331A607047A84910
:107490008866704710B5830143EA016343EA0273CB
:1074A0009F4C8834236010BDA14908677047A049EC
:1074B000C864704702460020994B0833186820F0D2
:1074C000EC6042EA01031843954B0833186070479B
:1074D00002460020924B0833186820F0784042EAB8
:1074E000010318438E4B0833186070470146002093
:1074F0008B4A0832106820F0030008431060704780
:1075000087480830006800F00C00704701460020F2
:10751000834A0832106820F0F0000843106070477A
:10752000014600207E4A0832106820F4E0500843EB
:107530001060704701460020794A0832106820F434
:10754000604040EAC10010607047F0B500210022A1
:107550000024022500260223714F08373F6807F0F8
:107560000C0121B1042905D0082937D105E0724F5B
:10757000076036E0714F076033E0694F3F1D3F6899
:10758000C7F38056664F3F1D3F6807F03F036EB15B
:107590006A4FB7FBF3F7DFF888C10CF1040CDCF895
:1075A00000C0CCF3881C07FB0CF40CE0624FB7FB67
:1075B000F3F7DFF86CC10CF1040CDCF800C0CCF37D
:1075C000881C07FB0CF4564F3F1D3F68C7F301476B
:1075D0007F1C7D00B4FBF5F7076002E0564F0760A3
:1075E00000BF00BF4E4F08373F6807F0F0010909A0
:1075F000534F7A5C0768D7404760494F08373F6868
:1076000007F4E051890A4E4F7A5C4768D74087609B
:10761000434F08373F6807F46041490B484F7A5C95
:107620004768D740C760F0BD002100F44072B2F552
:10763000407F0AD13A4A0832116821F4F811414AD0
:1076400002401143364A08321160354A70321268DE
:10765000C0F30B031A43324B70331A60704735493D
:1076600044390860704733494039086070473649EB
:107670000860704701460020294A8C32106820F0CB
:107680001F004A1E1043264A8C3210607047014684
:107690000020234A8C32106820F4F8504A1E40EA39
:1076A00002201F4A8C3210607047014600201C4A9D
:1076B0008C32106820F44010084310607047014677
:1076C0000020174A8C32106820F4400008431060F4
:1076D000704701460020124A8C32106820F4403076
:1076E00008431060704719490860704739B10C4A67
:1076F0003032126802430A4B30331A6006E0084AFF
:10770000303212688243064B30331A607047F9B149
:10771000034A343212680243014B34331A601CE0CE
:1077200000380240FFFFF6EA10300024003000204D
:1077300000004742800E47420024F40000127A0005
:107740005A000020FFFCFF0F5C014742E011474256
:107750008F4A126882438E4B1A60704739B18C4A47
:10776000121D126802438A4B1B1D1A6006E0884AEC
:10777000121D12688243864B1B1D1A60704739B177
:10778000834A0C3212680243814B0C331A6006E0C4
:107790007F4A0C32126882437D4B0C331A6070476B
:1077A00039B17B4A103212680243794B10331A60A8
:1077B00006E0774A103212688243754B10331A6024
:1077C000704739B1724A243A12680243704B243B25
:1077D0001A6006E06E4A243A126882436C4B243BDE
:1077E0001A60704739B16A4A203A12680243684BFE
:1077F000203B1A6006E0664A203A12688243644BD6
:10780000203B1A60704739B1614A1C3A1268024342
:107810005F4B1C3B1A6006E05D4A1C3A12688243CB
:107820005B4B1C3B1A60704739B1594A143A1268D5
:107830000243574B143B1A6006E0554A143A12684B
:107840008243534B143B1A60704739B1504A103A87
:10785000126802434E4B103B1A6006E04C4A103A45
:10786000126882434A4B103B1A60704739B1484A4C
:107870001C3212680243464B1C331A6006E0444A2D
:107880001C3212688243424B1C331A60704739B174
:107890003F4A2032126802433D4B20331A6006E013
:1078A0003B4A203212688243394B20331A607047BA
:1078B00039B1374A243212680243354B24331A60F7
:1078C00006E0334A243212688243314B24331A6073
:1078D000704739B12E4A2C32126802432C4B2C339C
:1078E0001A6006E02A4A2C3212688243284B2C3355
:1078F0001A60704739B1264A303212680243244B6D
:1079000030331A6006E0224A303212688243204B3C
:1079100030331A607047012808D11D493C3109688D
:1079200041F008011A4A3C32116007E018493C3125
:10793000096821F00801164A3C321160704739B1DC
:10794000134A273A12780243114B273B1A7006E07C
:107950000F4A273A127882430D4B273B1A70704723
:107960000B484030006840F08070094940310860A1
:10797000704701460020064A283A12680A400AB1B8
:10798000012000E000207047014926390870704747
:107990003438024010B50446FA48844208D1012127
:1079A0001020FFF752FF00211020FFF74EFF57E095
:1079B000F548844209D101214804FFF735FF002131
:1079C0004FF40030FFF730FF4AE0F048844209D11D
:1079D00001218804FFF728FF00214FF48020FFF7E2
:1079E00023FF3DE0EA48844209D10121C804FFF7A2
:1079F0001BFF00214FF40020FFF716FF30E0E548A1
:107A0000844209D101210805FFF70EFF00214FF440
:107A10008010FFF709FF23E0DF48844208D10121ED
:107A20002020FFF712FF00212020FFF70EFF17E0B4
:107A3000DA48844209D101218807FFF7F5FE0021C9
:107A40004FF08040FFF7F0FE0AE0D548844207D1AE
:107A500001214005FFF7E8FE00216005FFF7E4FE85
:107A600010BD2DE9FF4705460E460024A14600BF84
:107A7000A046B08900B100BF2C8A24F44054F0889D
:107A800004432C82AC8941F20C608443B088318974
:107A90000843718908430443AC81AC8A24F44074E0
:107AA000B0890443AC826846FFF74FFDB548854274
:107AB00002D0B948854202D1DDF80C9001E0DDF832
:107AC0000890A88900F4004040B109EBC90000EB20
:107AD000091031684900B0FBF1F707E009EBC90074
:107AE00000EB091031688900B0FBF1F76420B7FBA7
:107AF000F0F004012009642101FB1078A88900F44A
:107B0000004040B1322000EBC800B0FBF1F000F0C3
:107B10000700044308E0322000EB08106421B0FBAA
:107B2000F1F000F00F0004432C81BDE8FF874FF413
:107B30001651016000218180C18001810C214181A9
:107B400000218181704710B502460020108A20F480
:107B500070600B884C8823438C882343CC88234354
:107B60001843108210BD0021018041808180C180B6
:107B7000704721B1828942F40052828104E08289F7
:107B80004DF6FF731A4082817047028B02F47F42E8
:107B90000283028B0A430283704721B1828942F437
:107BA0000042828103E08289C2F30E028281704723
:107BB00021B1828A42F40062828204E0828A4FF21A
:107BC000FF731A4082827047C1F3080282807047B7
:107BD00001468888C0F308007047028A4FF6F073A8
:107BE0001A400282028A0A430282704721B18289C6
:107BF00042F00202828104E082894FF6FD731A404E
:107C00008281704782894FF2FF731A408281828994
:107C10000A4382817047028A4FF6DF731A4002825C
:107C2000028A0A430282704721B1028A42F48042EA
:107C3000028204E0028A4BF6FF731A400282704708
:107C4000818941F001018181704721B1828A42F02E
:107C50000802828204E0828A4FF6F7731A40828219
:107C60007047028BD2B20283028B42EA0122028366
:107C7000704721B1828A42F02002828204E0828A27
:107C80004FF6DF731A408282704721B1828A42F038
:107C90001002828204E0828A4FF6EF731A408282D9
:107CA0007047828A4FF6FB731A408282828A0A43A7
:107CB0008282704721B1828A42F00202828204E00D
:107CC000828A4FF6FD731A40828270471AB1838A06
:107CD0000B43838202E0838A8B4383827047F0B533
:107CE0000346002400260025002040F66A17B9420A
:107CF00000D100BF1846C1F3421401F01F0601274E
:107D000007FA06F5012C01D10C3004E0022C01D158
:107D1000103000E014301AB107682F43076002E00A
:107D20000768AF430760F0BD02460020B1F5007F51
:107D300000D100BF13880B400BB1012000E00020F0
:107D4000704701F40072B2F5007F00D100BFCA4352
:107D50000280704770B502460024002300250020F1
:107D600040F66A16B14200D100BFC1F3421501F0DE
:107D70001F03012606FA03F3012D13D19689334020
:107D800017E000000010014000440040004800409F
:107D9000004C0040005000400014014000780040BA
:107DA000007C0040022D02D1168A334001E0968A01
:107DB00033400C12012606FA04F41688344013B13D
:107DC0000CB1012000E0002070BD10B5002200239E
:107DD00040F66A14A14200D100BF0A120124944067
:107DE000A3B2DC43048010BD704700000FB4044907
:107DF00010B503AA029800F0C3F810BC5DF814FB9C
:107E0000540000202DE9F0410E4604460020206277
:107E10002046E168884730B3252805D0D4E9012100
:107E20009047206A401CF2E7E16820460027884717
:107E3000050018D0A5F14100192802D820354FF4CB
:107E400000673246294620462760F8F7D7F940B147
:107E5000012804D0F61D26F007060836D8E7361D9F
:107E6000D6E72846DAE7206ABDE8F08170B5044617
:107E70000D4621461068AFF300802188090502D520
:107E80000F4A7A4402E00E4A7A440E32002104F18D
:107E9000240305E000F00F060009965D5E54491CBE
:107EA0000028F7D120780023000704D5702D02D0D8
:107EB00009B1022311322046BDE8704000F006B837
:107EC000AE1C000070477047704770472DE9F047BF
:107ED0000D4699469246044600F12408016888063A
:107EE00004D5E06921F01001216000E00120A842E2
:107EF00001DD471B00E00027A1697A1902EB0900A8
:107F0000081AA0612078C00602D42046AFF3008092
:107F1000002608E0D4E901211AF806009047206AFB
:107F2000401C761C20624E45F4DB2078C0060AD542
:107F30002046AFF3008006E0D4E9012130209047CD
:107F4000206A401C2062381EA7F10107F4DC07E01C
:107F5000D4E9012118F805009047206A401C2062EE
:107F6000281EA5F10105F3DC2046AFF30080207840
:107F7000000602D50220BDE8F0870120FBE70000E3
:107F8000074B70B50D467B4400F011F804462846B7
:107F900000F020F810B14FF0FF3070BD204670BDEA
:107FA000EDE8FFFF01694A1C02610878704700B5DF
:107FB0008FB0CDE901310021059105497944CDE922
:107FC000031011466846FFF71DFF0FB000BD00000B
:107FD000E5FFFFFF007B00F080007047754600F072
:107FE0002BF8AE4605006946534620F0070085464B
:107FF00018B020B5FEF7F0FCBDE820404FF00006B9
:108000004FF000074FF000084FF0000B21F0070180
:10801000AC46ACE8C009ACE8C009ACE8C009ACE8C3
:10802000C0098D46704710B50446AFF30080204666
:10803000BDE81040F8F7F6B8004870477C01002012
:108040004FEA41034FEA5353A3F58063D3F11E0374
:10805000C8BFD3F1210C0CDD4FF0004242EAC1222F
:1080600042EA505232FA03FC8CEAE17CACEBE1705C
:108070007047102BC4BF0020704703F5787CBCF11B
:10808000FF3F04D06FF0004282EA2100704770B5D4
:1080900000F008F94992248000207047F2E70000C0
:1080A0004FEA1153A3F58063D3F11E03A8BFD3F1A8
:1080B000200C08DB4FF0004242EAC12252EA505243
:1080C00032FA03F0704709420BD4102BC4BF0020D2
:1080D000704703F5787CBCF1FF3F05D04FF0FF30CF
:1080E00070474FF00000704770B500F0DBF800BF3C
:1080F0004992248000207047F0E710F0004248BF0A
:108100004042B0FA80F310FA03F10AD0C3F11D0324
:1081100003F580634FEA415002EB035202EBD12199
:1081200070474FF000007047B0FA80F310FA03F187
:108130000AD0C3F11D0303F580634FEA41504FEAB3
:10814000035202EBD12170474FF00000704700004E
:10815000DFF848C170B51CEA111E1EBF1CEA1315DA
:108160009EEA0C0F95EA0C0F00F06F8081EA030481
:1081700023EA4C134EEAD47E21EA4C1141F48011DB
:1081800043F48013AE44A1FB024CA0FB0365AEF1A7
:108190007F7E361955EB0C05A1FB034C4CF1000317
:1081A000A0FB021C16EB0C06654153F100030942CB
:1081B00018BF46F0010613F4007F0BD14FEA0331DC
:1081C0004FEA0530340341EA155140EA16506FF08A
:1081D00003020AE04FEAC3214FEAC520F40241EA54
:1081E000555140EA56506FF0020202EB2E4201EB6D
:1081F000025585EACE710AD05FEA440C18BF24F01C
:10820000004450F1000041F1000120EAD47040F236
:10821000FE7C624500D270BDA84214BF4FF080447E
:108220004FF04044002E08BF0024BEF1806FA8BF6D
:10823000A1F1C041BDE8704080F282804FF00000A3
:1082400001F1C04101F0004170479EEA0C0F0CEAB9
:10825000131518BF95EA0C0F06D04FF0000081EA05
:10826000030E0EF0004170BD00F01CF88900013EC5
:1082700000F007B800F009B84FEA430C5FEA5C5C15
:1082800008D081EA030100F05BB84FEA410C5FEAD5
:108290005C5CF6D14FF00000014970470000FF0719
:1082A0000000F87F0EF1020E2EF0030E5EF8046B54
:1082B000364205D4012A43EB030515F5001F12D8F9
:1082C000012841EB010C1CF5001F0CD80ED14FEA20
:1082D000D17C15F5001F0CEB4C0C0CF1020C08BF07
:1082E0004CEBD37C04E04FF0080C01E04FEAD37C68
:1082F0000CEB4C0526FA05F606F00706B6F1040C61
:1083000006D20EEB860CBDE870404CF0010C6047C5
:10831000DFE80CF0090B02024FF000414FF00000C3
:10832000A1F5002170BD19461046012851EB01044A
:1083300018BFD4F5001484BF002001F0004170BDC7
:108340000808A0F500114FEA310170474FF0407066
:10835000E1EE100A7047000000000000000000007D
:108360000000000000003F4000000000000000008E
:108370003000400030004000000009000BC03D000C
:108380000BC03D00090018C024407FE0224031802E
:108390000000180024C01B000D80324001800380C3
:1083A0001C4027401C800740004010006000000077
:1083B0000000000000000000000000001F802040BE
:1083C00040200000402020401F80000000000900E5
:1083D00006001F80060009000000040004003F8022
:1083E0000400040000000010006000000000000015
:1083F0000000040004000400040004000000000069
:1084000000400000000000000000002001C0060045
:108410003800400000001F802040204020401F8086
:108420000000000010403FC000400000000018C0E5
:108430002140224024401840000010802040244069
:1084400024401B80000002000D0011003FC00140CD
:1084500000003C80244024402440238000001F80F2
:10846000244024403440038000003000200027C016
:108470003800200000001B802440244024401B8042
:1084800000001C0022C0224022401F80000000008B
:108490000000084000000000000000000000046030
:1084A000000000000000000004000A00110020800D
:1084B000404009000900090009000900000000000F
:1084C0004040208011000A000400180020002340D2
:1084D0002400180000001F802040274029401F4032
:1084E0000000004007C039000F0001C000402040DC
:1084F0003FC0244024401B8000001F8020402040BB
:1085000020403080000020403FC0204020401F809D
:10851000000020403FC024402E4030C000002040DA
:108520003FC024402E00300000000F00108020408B
:1085300022403380020020403FC0040004003FC0BE
:108540002040204020403FC02040204000000060EC
:10855000202020203FC02000200020403FC0244099
:108560000B0030C0204020403FC020400040004071
:1085700000C03FC03C0003C03C003FC000002040A2
:108580003FC00C4023003FC020001F8020402040FF
:1085900020401F80000020403FC0244024001800DD
:1085A00000001F802140214020E01FA0000020404B
:1085B0003FC02440260019C0004018C02440244079
:1085C000224031800000300020403FC02040300079
:1085D000000020003F80004000403F80200020003D
:1085E0003E0001C0070038002000380007C03C00F2
:1085F00007C038000000204039C0060039C02040C4
:1086000000002000384007C0384020000000304003
:1086100021C02640384020C00000000000007FE05C
:10862000402040200000000070000C00038000404B
:1086300000000000402040207FE00000000000001B
:10864000200040002000000000000010001000107A
:1086500000100010001000000000400000000000AA
:108660000000000002800540054003C000402000DB
:108670003FC0044004400380000000000380044029
:1086800004400640000000000380044024403FC036
:10869000004000000380054005400340000000004A
:1086A00004401FC0244024402000000002E0055088
:1086B00005500650042020403FC00440040003C081
:1086C00000400000044027C00040000000000010EF
:1086D0000010041027E00000000020403FC00140CF
:1086E000070004C00440204020403FC0004000403C
:1086F000000007C0040007C0040003C000000440DD
:1087000007C00440040003C0004000000380044090
:10871000044003800000041007F00450044003806C
:108720000000000003800440045007F000100440E3
:1087300007C002400400040000000000064005409D
:10874000054004C00000000004001F8004400040F9
:108750000000040007800040044007C000400400FF
:10876000070004C0018006000400060001C00700E5
:1087700001C006000000044006C0010006C004401D
:1087800000000410071004E001800600040000004F
:10879000044005C006400440000000000000040042
:1087A0007BE040200000000000000000FFF000001F
:1087B0000000000040207BE00400000000004000BA
:1087C0008000400020002000400000000000000069
:1087D0000000000000000000000000000000000099
:1087E0001FCC000C0000000000000000080030005A
:1087F00060000800300060000000022003FC1E2022
:10880000022003FC1E200220000000000E181104AC
:108810003FFF10840C78000000000F0010840F3818
:1088200000C0077818840078000000780F8410C416
:1088300011240E9800E4008400080800680070000D
:108840000000000000000000000000000000000028
:1088500007E0181820044002000000004002200435
:10886000181807E0000000000000024002400180EC
:108870000FF0018002400240000000800080008074
:108880000FF800800080008000000001000D000E45
:1088900000000000000000000000000000800080D8
:1088A000008000800080008000800000000C000C30
:1088B000000000000000000000000000000600189A
:1088C00000600180060018002000000007F0080882
:1088D00010041004080807F0000000000804080451
:1088E0001FFC000400040000000000000E0C101427
:1088F0001024104411840E0C000000000C18100409
:108900001104110412880C700000000000E0032024
:10891000042408241FFC0024000000001F98108479
:1089200011041104108810700000000007F008887E
:108930001104110418880070000000001C001000D1
:1089400010FC13001C001000000000000E38114441
:108950001084108411440E38000000000700088CB9
:1089600010441044088807F00000000000000000D8
:10897000030C030C000000000000000000000001D8
:10898000010600000000000000000000008001401F
:108990000220041008081004000002200220022017
:1089A000022002200220022000000000100408081B
:1089B0000410022001400080000000000E001200A0
:1089C000100C106C10800F00000003E00C1813E472
:1089D000142417C4082807D000000004003C03C476
:1089E0001C40074000E4001C000410041FFC11049C
:1089F000110411040E880070000003E00C1810042C
:108A00001004100410081C10000010041FFC1004B7
:108A100010041004080807F0000010041FFC1104E3
:108A2000110417C410040818000010041FFC1104DE
:108A3000110017C010000800000003E00C1810041B
:108A4000100410441C780040000010041FFC108427
:108A50000080008010841FFC10040000100410042B
:108A60001FFC1004100400000000000300011001AE
:108A700010011FFE10001000000010041FFC110464
:108A800003801464181C1004000010041FFC100460
:108A9000000400040004000C000010041FFC1F0070
:108AA00000FC1F001FFC1004000010041FFC0C043D
:108AB000030000E010181FFC100007F00808100465
:108AC00010041004080807F0000010041FFC1084B4
:108AD0001080108010800F00000007F0081810248C
:108AE0001024101C080A07F2000010041FFC1104D7
:108AF000110011C011300E0C000400000E1C1104F6
:108B00001084108410441C38000018001000100459
:108B10001FFC100410001800000010001FF81004C3
:108B20000004000410041FF8100010001E0011E0E3
:108B3000001C007013801C0010001FC0103C00E0DF
:108B40001F0000E0103C1FC000001004180C163479
:108B500001C001C01634180C100410001C001304CE
:108B600000FC13041C00100000000804101C10641A
:108B7000108413041C041018000000000000000002
:108B80007FFE4002400240020000000030000C0066
:108B900003800060001C000300000000400240024F
:108BA00040027FFE000000000000000000002000E6
:108BB00040004000400020000000000100010001D2
:108BC0000001000100010001000100004000400020
:108BD00020000000000000000000000000980124B8
:108BE00001440144014400FC000410001FFC008803
:108BF000010401040088007000000000007000887B
:108C000001040104010400880000000000700088D5
:108C10000104010411081FFC0004000000F80144D5
:108C200001440144014400C80000000001040104A3
:108C30000FFC1104110411001800000000D60129D6
:108C40000129012901C90106000010041FFC00844C
:108C500001000100010400FC0004000001041904EB
:108C600019FC0004000400000000000000030001E3
:108C70000101190119FE0000000010041FFC00246E
:108C8000004001B4010C01040000000010041004B5
:108C90001FFC0004000400000000010401FC0104AA
:108CA000010001FC0104010000FC010401FC00843E
:108CB00001000100010400FC0004000000F80104B0
:108CC00001040104010400F80000010101FF008516
:108CD000010401040088007000000000007000889A
:108CE00001040104010501FF00010104010401FC6C
:108CF00000840104010001800000000000CC012478
:108D00000124012401240198000000000100010059
:108D100007F80104010400000000010001F800044C
:108D200000040004010801FC00040100018001703E
:108D3000000C001001600180010001F0010C003006
:108D400001C00030010C01F0010000000104018CA1
:108D500000740170018C01040000010101810171A6
:108D6000000E001801600180010000000184010C68
:108D7000013401440184010C0000000000000000E7
:108D8000000001003EFC4002400200000000000024
:108D90000000FFFF00000000000000004002400251
:108DA0003EFC0100000000000000000060008000A8
:108DB0008000400040002000200000000000000073
:108DC00000000000000000000000000000000000A3
:108DD0000000000000000000000000000000000093
:108DE000000000000000000000000000000F8038BC
:108DF0000FFE380F80380000000000000000000067
:108E000000000000000000000100000600000C004F
:108E1000003800003100000600000C00003800009F
:108E20003000000000000000000061800067F807CB
:108E3000F9800061800061800061800061800067CE
:108E4000F807F980006180000000000000000000C9
:108E500001C0E003E0F00630080418081FFFFE041C
:108E60000E080787F00381E000000000000001F019
:108E700000060C00040408060C7001F9C0000E0086
:108E8000003BE000EC18070808040C180003E000A1
:108E900000000001E00007F003F818041C080417A4
:108EA0000807E1D003C0E00023B0003C0800200820
:108EB000000010000000000000010000310000323E
:108EC00000001C0000000000000000000000000086
:108ED0000000000000000000000000000000000092
:108EE000000000000000000000007F0001FFC0073C
:108EF00080F00C00181000042000020000000000A8
:108F0000002000021000040C00180780F001FFC0D0
:108F1000007F0000000000000000000000000000D2
:108F20000000000000004200006600006600003CF7
:108F30000000180003FFC0001800003C000066009D
:108F40000066000042000000000008000008000069
:108F5000080000080000080001FFC0000800000829
:108F600000000800000800000800000000000001E8
:108F700000003100003200001C0000000000000072
:108F800000000000000000000000000000000000E1
:108F900000000800000800000800000800000800A9
:108FA0000008000008000008000008000008000099
:108FB0000000000000000000000038000038000041
:108FC0003800000000000000000000000000000069
:108FD00000000000000000000000000600001C006F
:108FE0000070000180000E0000380000C000070083
:108FF000001C0000300000000000000000007F8026
:1090000001FFE00380700600180400080400080651
:10901000001803807001FFE0007F80000000000066
:109020000000000001000801000801000803FFF82B
:1090300007FFF8000008000008000008000000001A
:10904000000000000001C03802C05804009804016C
:1090500018040218040418061C1803F81801E0F894
:1090600000000000000000000001C0E003C0F004A8
:10907000000804080804080806180803F41801E7A3
:10908000F00001E00000000000000000000003000C
:10909000000D0000110000610000810803010807B5
:1090A000FFF80FFFF80001080001080000000000B1
:1090B000000000E007FCD0060808061008061008AB
:1090C000061008061838060FF00607C0000000005A
:1090D0000000000000003F8001FFE0038430020830
:1090E00018041008041008041008071810030FF0E3
:1090F0000007C000000000000000000003C00007DF
:1091000000000600000600F80607F806180006E052
:109110000007000006000000000000000001E1E080
:1091200003F7F0063410041808041808040C0804A7
:109130000C0806161803F3F001C1E000000000005F
:109140000000F80003FC300306380402080402089B
:109150000402080404100308F001FFC0007F0000AF
:1091600000000000000000000000000000000000FF
:1091700000007038007038007038000000000000F7
:1091800000000000000000000000000000000000DF
:10919000000000000000301A00301C000000000039
:1091A00000000000000000000000000000000000BF
:1091B000000800001400002200004100008080012F
:1091C0000040020020040010080008000000000019
:1091D00000002100002100002100002100002100EA
:1091E00000210000210000210000210000210000DA
:1091F0000000000000000000080008040010020049
:109200002001004000808000410000220000140086
:1092100000080000000000000003C00004C00004BB
:109220000000080038080F380808380810000C3013
:109230000007E00003C000000000000000003F80C5
:1092400000FFE0038070020F1006708804C08804DD
:109250008308047F8802C09003012000FE400000C4
:10926000080000180001F8003E0801C200070200D3
:1092700007E20000FE00001FC80001F800003800EF
:10928000000804000807FFF807FFF80408080408AE
:109290000804080804080806180803F41801E7F091
:1092A0000001E0000000000000003F8001FFE0033B
:1092B000807002001804000804000804000804007C
:1092C000100600200780C000000004000807FFF817
:1092D00007FFF8040008040008040008040018024E
:1092E000001003807001FFE0007F80000000040098
:1092F0000807FFF807FFF80408080408080408082E
:10930000040808043E080400080600180100600074
:10931000000004000807FFF807FFF8040808040825
:1093200000040800040800043E00060000060000D7
:10933000018000000000000000003F8001FFE0030A
:1093400080700600180400080402080402080203E2
:10935000F00783F000020000020004000807FFF895
:1093600007FFF804080800080000080000080000D3
:10937000080004080807FFF807FFF80400080000C9
:109380000000000004000804000804000807FFF8BB
:1093900007FFF804000804000804000800000000AB
:1093A00000000000000000060000070000010400AB
:1093B0000104000104000307FFFE07FFFC04000096
:1093C00004000004000004000807FFF807FFF80489
:1093D0000C08001800003E0004C7800503C8060002
:1093E000F804003804001800000804000807FFF81B
:1093F00007FFF8040008000008000008000008004B
:1094000000080000080000180000600000000400D0
:109410000807FFF807800807FC00007FC00003F87A
:109420000007C000780007800807FFF807FFF8046E
:10943000000804000807FFF807000803C00000E068
:1094400000003800001E000007000001C00400F00A
:1094500007FFF8040000000000007F8001FFE00328
:1094600080700600180400080400080600180300B5
:109470003001FFE0007F8000000004000807FFF8D3
:1094800007FFF804040804040004040004040004B2
:109490000400060C0003F80001F0000000000000CA
:1094A00000007F8001FFE0038070060088040088D0
:1094B0000400C806003C03003E01FFE6007F840074
:1094C000000004000807FFF807FFF8040808040874
:1094D00000040C00040F00040BC00610F003F03869
:1094E00001E00800000800000001E0F803F0300689
:1094F0003010041808041808040C08040C080206AC
:10950000180207F00781E00000000180000600005B
:1095100004000004000004000807FFF807FFF80437
:1095200000080400000400000600000180000400A0
:109530000007FFE007FFF004001800000800000823
:1095400000000800000800000804001007FFE00405
:10955000000004000006000007E00007FE00041FF2
:10956000E00001F80000380001E0043E0007C00000
:1095700006000004000004000007E00007FFC0042C
:109580001FF80007C007F80007FF80043FF8000736
:10959000C004F800070000040000000000040008F8
:1095A00006001807C07805F1C8003E00001F8004BF
:1095B00063E80780F80600180400080000000400B3
:1095C0000006000007800007E008047C08001FF880
:1095D0000007F800180804E008070000060000046F
:1095E00000000000000100080600380400F8040331
:1095F000E8040F08047C0805F00807C008070018F5
:1096000004006000000000000000000000000000F6
:1096100000000000003FFFFE2000022000022000AA
:1096200002200002200002000000000000000000F4
:1096300008000007000000C000003800000600001D
:1096400001C000003000000E00000100000000001A
:109650000000000020000220000220000220000282
:109660002000023FFFFE000000000000000000009C
:1096700000000000000000000000000800001000D2
:109680000030000020000030000010000008000042
:1096900000000000000000000100000100000100C7
:1096A00000010000010000010000010000010000B5
:1096B00001000001000001000001000000000000A6
:1096C000000000200000200000100000100000003A
:1096D000000000000000000000000000000000008A
:1096E000000000F00019F8001B18002208002608EE
:1096F000002408002410003FF8001FF800000800B4
:10970000001800000004000007FFF80FFFF0001829
:1097100018001008002008002008003018001FF072
:10972000000FC00000000000000007C0001FF00094
:109730001830002008002008002008003C08001C09
:10974000100000600000000000000000000007C0E2
:10975000001FF0003818002008002008002008042E
:10976000101007FFF80FFFF00000100000000000CD
:10977000000000000007C0001FF000123000221897
:10978000002208002208003208001E10000E2000EF
:10979000000000000000200000200800200801FF59
:1097A000F803FFF80620080420080420080720001A
:1097B00003000000000000000000000E000E6E001C
:1097C0001FF30031B10020B10020B1003191001F22
:1097D00013002E1E00200E003000000000040008C0
:1097E00007FFF80FFFF8001008002000002000001D
:1097F0002008003FF8001FF80000080000000000EB
:1098000000000000002008002008002008063FF8A3
:10981000063FF800000800000800000800000000F3
:109820000000000000000000000003000003002012
:1098300001002001002003063FFE063FFC0000005F
:1098400000000000000000000004000807FFF80FFF
:10985000FFF8000188000300002FC00038F8002046
:109860003800200800000800000000000000000090
:1098700004000804000804000807FFF80FFFF800C0
:1098800000080000080000080000000000000020A0
:1098900008003FF8003FF8001008002000003FF8E3
:1098A000003FF8001008002000003FF8003FF800DB
:1098B0000008000000002008003FF8003FF80010FA
:1098C00008001000002000002008003FF8001FF8EA
:1098D0000000080000000000000007C0000FF000BA
:1098E0001830003008002008002008003008001858
:1098F00030000FF00007C000000000000000200151
:10990000003FFF003FFF0010110020090020080069
:109910002008003038001FF0000FC00000000000D9
:10992000000007C0001FF0003818002008002008C1
:10993000002009001011001FFF003FFF0000010080
:109940000000002008002008002008003FF8003F29
:10995000F80008080010080020080020000030006F
:10996000003000000000000000000000000C780043
:109970001E18003308002308002108002188002158
:10998000980030F000386000000000000000200067
:1099900000200000200000FFF003FFF80020080076
:1099A0002008002008000030000000000000000037
:1099B00000002000003FF0007FF8000018000008C1
:1099C000000008002010003FF8007FF000001000A9
:1099D0000000000000002000003000003C00003FBC
:1099E000800023F0000078000070002380003C001D
:1099F000003000002000002000003C00003FE0009C
:109A000023F80000E0002700003E00003FE00021B6
:109A1000F80001E0003E00002000000000002008E7
:109A2000002008003838003E680027800003C80086
:109A30002CF8003838002018002008000000000032
:109A400000002000003003003C01003F830023ECB5
:109A5000000070002380003C000020000020000077
:109A6000000000000000000000380800203800203E
:109A7000F80023E8002F88003E080038080020186E
:109A80000000700000000000000000000000000066
:109A900000000000000008000014001FF7FC300068
:109AA000062000020000000000000000000000008E
:109AB000000000000000000000000000FFFFFF00A9
:109AC0000000000000000000000000000000000096
:109AD000000000002000023000061FF7FC00140008
:109AE000000800000000000000000000000000006E
:109AF000000000000018000060000040000040006E
:109B00000020000010000008000004000004000015
:109B10000C000010000000000F0000000F0000000B
:109B2000FF0000000F0000000F0000000F00000009
:109B30000000000030313233343536373839414295
:109B4000434445464030580030313233343536379F
:109B50003839616263646566403078007C9B000838
:109B6000000000206C000000C4010008E89B000811
:109B70006C00002074070000E001000800000000F5
:109B800000000000C4090000000000000000000008
:109B9000007A030A00000000000000000102030434
:109BA000060708090000FFFF000000000101010195
:109BB00001020304FFFFFFFF01010101E8030000B0
:109BC000E8030000E8030000E803000000000000D4
:109BD0000000000000000000000001020304010278
:089BE000030406070809000058
:040000050800018965
:00000001FF
